:020000022000DC
:10600000988400205DAE0200B5FA040031AE0200B3
:1060100031AE020031AE020031AE020000000000DD
:1060200000000000000000000000000081AF02003E
:1060300031AE020000000000EDAE020031AE020001
:10604000A1B10200E5C40300A1B10200A1B10200A8
:10605000A1B10200A1B10200A1B10200A1B10200F0
:10606000A1B10200A1B10200A1B10200A1B10200E0
:10607000A1B10200A1B10200A1B10200A1B10200D0
:10608000A1B10200A1B10200A1B10200A1B10200C0
:10609000A1B10200A1B10200A1B10200A1B10200B0
:1060A000A1B10200A1B10200A1B10200A1B10200A0
:1060B000A1B10200A1B10200A1B10200A1B1020090
:1060C000A1B10200A1B10200A1B10200A1B1020080
:1060D000A1B10200A1B10200A1B10200A1B1020070
:1060E000A1B10200A1B10200A1B10200A1B1020060
:1060F000A1B10200A1B10200A1B10200A1B1020050
:1061000053B94AB9002908BF00281CBF4FF0FF311E
:106110004FF0FF3000F00CB8ADF1080C6DE904CE83
:1061200000F008F8DDF804E0DDE9022304B0704770
:10613000704700BF2DE9F04786468C460846089E0A
:10614000154674461946002B40F0C2808542B2FACB
:1061500082F245D94AB1C2F1200300FA02FC2EFABC
:1061600003F3954043EA0C0C94404FEA154EA8B255
:10617000BCFBFEF8230C0EFB18CC08FB00F943EA2D
:106180000C43994528D9EB1808F1FF3704D29945FB
:1061900002D9A8F102072B44A3EB0903A4B2B3FB75
:1061A000FEFC0EFB1C330CFB00F044EA0344A0424F
:1061B00014D92C190CF1FF3304D2A04202D9ACF14E
:1061C00002032C44241A43EA07401EB1D4400023A2
:1061D00034607360BDE8F0874746DDE76346F1E76A
:1061E00092BB431B01214FEA154EAFB2B3FBFEFC3D
:1061F000200C0EFB1C330CFB07F840EA03439845C8
:1062000062D9EB180CF1FF3004D2984502D9ACF1F9
:1062100002002B44A3EB0803A4B2B3FBFEFC0EFB6D
:106220001C330CFB07F744EA0344A7424ED92C1950
:106230000CF1FF3304D2A74202D9ACF102032C4483
:10624000E41B43EA0040C0E7C2F1200320FA03F157
:10625000954090402EFA03F303434FEA154EAFB238
:10626000B1FBFEFC0EFB1C10190C0CFB07F841EAFD
:106270000041884504FA02F422D969180CF1FF3074
:1062800004D2884502D9ACF102002944A1EB0801EF
:106290009BB2B1FBFEFC0EFB1C110CFB07F743EAA3
:1062A00001439F420ED9EB180CF1FF3104D29F42FB
:1062B00002D9ACF102012B44DB1B41EA004192E719
:1062C0006046E3E76146F7E76046A3E76346B7E762
:1062D000834206D916B9002108467BE7C6E900E0EB
:1062E000F9E7B3FA83F78FB9834201D3724508D82F
:1062F000BEEB020460EB030301209C461EB90021A3
:1063000068E73846FAE7C6E9004CF8E7C7F1200C21
:10631000BB4022FA0CF41C432EFA0CF120FA0CF3C9
:10632000B84001434FEA14490EFA07F5B3FBF9F8F8
:106330001FFA84FE09FB18300B0C08FB0EFA43EA27
:1063400000439A4502FA07F240D9E31808F1FF30FA
:1063500004D29A4502D9A8F102002344A3EB0A0310
:1063600089B2B3FBF9F809FB183308FB0EFE41EACA
:1063700003418E452CD9611808F1FF3304D28E45B4
:1063800002D9A8F10203214443EA0040A0FB02988D
:10639000A1EB0E014145CE46434602D306D14D4501
:1063A00004D2B9EB020E68EB04030138002EA6D02C
:1063B000B5EB0E0261EB030101FA0CFC22FA07F3C4
:1063C0004CEA0303F940C6E9003198E74046C5E7C7
:1063D0004346D9E710F8012B11F8013B012A28BFE9
:1063E0009A42F7D0D01A7047034611F8012B03F8F0
:1063F000012B002AF9D17047034613F8012B002A1C
:10640000FBD1181A01387047F7B53E4DD5F85C310D
:10641000996811F0010121D101AA40F6034005F06D
:106420007BFD044600286AD10198C3681B789BB99C
:10643000BFF35B8FD5F8D430BFF35B8F05F1D40287
:1064400003F00903BFF35B8F52E8001F42E80034FA
:10645000002CF9D1BFF35B8F18F036FF01AA0021A1
:1064600041F2030005F058FD0446002847D1019B86
:10647000254EDA68D2F80100D2F8051003C6184696
:1064800018F022FF214601AA41F2010005F044FD67
:106490000446A0BB0198C3685A7885F870205A88D2
:1064A000A5F872201A7985F87120B3F80720A5F8AD
:1064B0007420B3F80530A5F8763018F005FF2146B2
:1064C00001AA41F2020005F027FD0446B8B9019F78
:1064D000FA68531C413218685968344603C40833BB
:1064E00093422646F7D1094829F0A3FB384618F015
:1064F000EBFE95F87C305B060AD46FF01204204660
:1065000003B0F0BD000000207800002080000020D3
:1065100001AA002142F2030005F0FEFC0446002817
:10652000EDD1019BB64EDA68D2F80100D2F8051021
:1065300003C6184618F0C8FE214601AA42F202001E
:1065400005F0EAFC04460028D9D1019CE368B3F8C1
:10655000012091B249B1D97839B1A5F80421DA788E
:10656000114606F1280036F056FA204618F0ACFE27
:1065700095F87C6016F0200618D1022140F66D4097
:1065800005F06EFC0446002800F0CC8002210C309F
:106590002CF012FC0123037046702146324640F66F
:1065A0006D4005F0B9FC04460028A8D195F89C3050
:1065B0001F0712D501AA002142F21C0005F0ACFC15
:1065C000044600289BD10198C368D3F80120D3F872
:1065D0000530C5E9382318F077FE95F8D8309E06C7
:1065E00024D50DF10201684629F0E6FD0446002895
:1065F00085D1042142F2240005F032FC0646002831
:1066000000F0908004210C302CF0D6FBBDF8003057
:106610000380BDF8023043802246314642F2240016
:1066200005F07AFC044600287FF469AF95F8D8306D
:106630005C0610D501AA002142F22A0005F06CFC8C
:10664000044600287FF45BAF0198C3685B7885F847
:10665000203118F039FE082142F2010005F000FC5B
:10666000044600285ED008210C302CF0A5FB95F8DC
:10667000D81011F0400F024640F2022308BF032356
:1066800088074CBF43F02C0043F00C0095F8D9303C
:106690008F0648BF40F0400013F0090F95F8A23074
:1066A00018BF40F4006003F00603CE0748BF40F077
:1066B0001000062B08BF40F4C070002129F048FCF0
:1066C0002146002242F2010005F026FC0446002883
:1066D0007FF415AF95F87C30B5F80411980624D4F2
:1066E000C9B901AA41F2050005F016FC04460028CC
:1066F0007FF405AFB5F80431019C4BB9E368B3F8FA
:106700000120A5F804219A883E48114636F083F905
:10671000204618F0D9FD082140F6014005F0A0FB05
:10672000044638B96FF06804E9E60029F3D16FF048
:106730000404E4E608210C302CF03EFB95F8D83038
:10674000D907024653BF4FF000512BA1D1E90001F8
:106750002D4829F0FDFB2146002240F6014005F0BE
:10676000DBFB044600287FF4CAAE014601AA4FF6BF
:10677000014005F0D1FB044620BB019818F0A4FDB0
:10678000214601AA4FF6024005F0C6FB0446C8B9EF
:106790000198C368B3F80130A5F8C13018F094FD32
:1067A00095F8C1305B070DD501AA21464FF603408D
:1067B00005F0B2FB30B90198C3685B7885F8C0304A
:1067C00018F082FD29F06CFF044600287FF497AE94
:1067D00007F0EAFA044600287FF491AEEB79002B2B
:1067E0003FF48DAE0821094829F0F5FA05F048FE7E
:1067F00085E600BFAFF30080908800020080002093
:10680000D80000200801002010880002D4000020D9
:106810002DE9F843D0E90C35D0F82C805C193034E0
:10682000A0450F46164619D81D4DA3FB05011AA316
:10683000D3E90023FFF764FC0346A4EB0800A0FBA8
:10684000050123F07F4414A3D3E90023FFF758FC8C
:1068500020F07F403C603060BDE8F883DFF8409076
:106860000DA3D3E90023A8FB0901FFF749FC044667
:1068700005F1300008A3D3E90023A0FB0901FFF7CD
:106880003FFC24F07F4420F07F403C603060BDE856
:10689000F88300BFAFF300808D49FD1A07000000A8
:1068A00000CA9A3B000000009FED097B0E4B0F4A87
:1068B0000F4983ED007B9FED087B82ED007B9FED10
:1068C000087B0C4B002281ED007B1A600DF0BCBAF6
:1068D000FFFFFFFFFF1F000000000000000000009E
:1068E0001F000000000000006801002000190020C7
:1068F00060010020E43B0020002800F046812DE9E3
:10690000F04FC94C94F86A2012F001058DB040F0A8
:10691000788194F82500FF2300F0030084F82630E6
:1069200015F0CAF994F86A00420727D494F8292090
:1069300094F8353004EB820204EB8303D66AD3F873
:10694000388086B1B84831460FF032F833785B06AC
:1069500005D506210AF004FB002800F05481B24856
:1069600041460FF025F8337813F00E0F40F09E806B
:10697000236A93B10C200DB0BDE8F08F2A4604F1D4
:106980006B01C0F3C00015F007FBFF2884F8260058
:10699000CCD0284615F0AAF9C8E70CF09FFB814639
:1069A000002800F054810CF0A5FB8246002800F07E
:1069B0004B810FF0EBFA0546002800F04A81D0F831
:1069C00088004FF6FF732B8505F11C0B002800F0A3
:1069D000208105F17C0205F178010AF0CDFAB5F8C5
:1069E000763023F4EF6323F0070343F4887343F016
:1069F0000103A5F8763095F8393003F03F0363F0D2
:106A00007F0385F8393095F88E3023F0070385F839
:106A10008E3095F83C3023F00703002785F83C3092
:106A20004FF4C023C5F888312846C5E91277C5F868
:106A30008870A5F88C706F86C5F82E7085F83B704D
:106A40002F65A5F88E71A5F8847111F011FC85F8F9
:106A50005071C5F854910FF025FD95F8943160F30D
:106A6000020385F894310FF023FD95F8943160F31B
:106A7000C50385F8943195F8803167F3410385F8B3
:106A800080310121284610F02FF905F1D40011F0D2
:106A9000A9F9C4E9189AC4F820B0C5E905772F70A0
:106AA000ED6116F0BFFA002840F0AF8094F8243072
:106AB0000121C3F342030DF12B008DF82B300AF0B6
:106AC000F9FB0246002862D098F8011030460EF01B
:106AD00031FD31235549A360554BB4F86870A0FBD4
:106AE00001010025C01841F107014DA3D3E900239E
:106AF000C4E9055525706560E560FFF701FB20617D
:106B00000BF0EAFD00F109083FB9357805F00F05F3
:106B1000A5F10105B5FA85F56D0994F824002369FE
:106B200065F3000010F0010584F8240036D0414AD6
:106B300009920020106002253F4A404F04930BAE9B
:106B4000019305920321CDE902000694434600908B
:106B5000089607972A460B950BF0C0FC31460CF0BF
:106B600083FBA0B9364905914AF2D8330093CDE9A9
:106B70000300CDE9010007970896069443460122D9
:106B800003210B950BF08EFC2EE00EF023BC236A44
:106B9000002B3FF4EFAE0EF0DBFBEBE6254A294875
:106BA000049303F247130694029591211360A7FB07
:106BB000000301FB0731214B07931F4B05934FF651
:106BC000FF730992022703930BAE15A3D3E90023A9
:106BD0000B970896FFF794FA4346CDE900503A46E2
:106BE000284603210BF07AFC31460CF03DFB0028CF
:106BF000CDD194F86A300120034384F86A3015F04F
:106C00003DF80020B7E61220B5E60EF0A1FB032008
:106C1000B1E605F18000C5F88800DAE6AFF3008040
:106C20008D49FD1A070000001C3C002000CA9A3B59
:106C30008C49FD1A103C0020B15503002D2803009B
:106C4000CD500300002AE78448460CF04DFA072097
:106C500091E650460CF054FA48460CF045FAF6E737
:106C600070B590F824308AB0C3F342030D46044651
:106C700001210DF1230016468DF823300AF01AFB8E
:106C80007178024628460EF055FC1F491F4AA0FBAA
:106C90000131981841F1070119A3D3E90023FFF747
:106CA0002FFA23699842054621D21B1A002201922D
:106CB000174A0293174BA21AA3FB02320221920930
:106CC00000230A4409AE099113490591CDE9033324
:106CD0000321D2B20696009318460BF05FFC3146B2
:106CE0000CF0C2FA38B9256100200AB070BDFBD99A
:106CF000C21A0023DBE70C200AB070BDAFF300809E
:106D00008D49FD1A0700000000CA9A3B8C49FD1A04
:106D10001C3C002009CB3D8D2D2803000000000005
:106D20002DE9F04F05468BB08B46012002219A4693
:106D3000144618F061F800220221814601200AF071
:106D40006BF939494FF4D07228460AF0F5F8C61CA1
:106D5000F6B2364B00953246012100200BF036FC8E
:106D600010F0FD0F0CD0324A3249334840F62F0361
:106D700027F036F9404080F311884FF0030002DF1E
:106D80002E4BA4FB0348204625A3D3E9002341460C
:106D9000FFF7B6F9089506952B690493284B20F068
:106DA0007F47A7FB0331E01A264B07934FF00702FA
:106DB000254B059302FB07114FF6FE7368EB0101AB
:106DC00003934FF47A720023FFF79AF9CDF800B0DD
:106DD000CDE9017053463246012100200BF062FBE1
:106DE00010F0FD0F0CD0124A1249134840F644032C
:106DF00027F0F6F8404080F311884FF0030002DFDF
:106E0000B9F1000F02D10BB0BDE8F08F01220221D1
:106E100010460BB0BDE8F04F0AF0FEB8AFF30080AB
:106E20008D49FD1A0700000008190020355F030096
:106E300050EA050014EB050088E5050000CA9A3BFE
:106E40008D49FD1ADD5E0300E5B10300000000007E
:106E50002DE9F043C469228D4FF6FF739A428DB03D
:106E600000F088800546204611F084FC95F8283013
:106E7000012B00F00F81022B00F00281002B00F0AB
:106E8000E18094F85071002F40F0FD80E68DB4F859
:106E90003080002E71D1AA8C08F101060023CDE9C3
:106EA0000A33B6B2002A70D094F93930002BC0F200
:106EB00048810023A4F88A3195F82630D90740F19B
:106EC000EF800023A4F88E310DF1270231462046D1
:106ED00011F00AFA743000F04681B4F888312BB111
:106EE000B34240F20D819B1BA4F88831B4F8843181
:106EF0002BB1B34240F2FB809B1BA4F88431258E5A
:106F000017B9A84500F0EA800135ADB294F8D13048
:106F100013F001065AD1DDE90A130A46002B40F0AE
:106F2000ED80002900F0DC801E461846228DE469C1
:106F30000694CDE903570332A74D0290CDE9001620
:106F4000D2B20121002005950BF028FB10F0FD0FB7
:106F500010D00CF0B3F984420CD0A04AA049A1484B
:106F600040F2155327F03CF8404080F311884FF071
:106F7000030002DF0DB0BDE8F083AA8C4644002375
:106F8000CDE90A33B6B2002A8ED195F82630DA0759
:106F900097D4B4F88A31002B00F08280B34240F2DB
:106FA000FA809B1BA4F88A31B4F88E31002B8BD069
:106FB0009E4280F0DE809B1B9BB20022062BA4F831
:106FC0008E31228600F2AC8001277DE794F93920CA
:106FD0006FF30003002A84F8D13077DB94F8760051
:106FE000C0F3C00100F0070015F082FEB4F86E2077
:106FF000B4F86C30134403F2D51303447A4A7B4847
:107000000721E3FB0021104671A3D3E90023FFF71A
:1070100077F8DDE90A1320F07F422069226190426F
:1070200035BF161A801A002000260A46002B7FF46E
:107030007DAF56EA010C7FF479AF002850D0194695
:107040001E4673E794F88E3003F01803182B7FF474
:1070500018AFA18DB4F886218B1D9A42C4BF931F2F
:107060005B1AB4F88211CCBF9BB21346994200F070
:107070008C80A4F88231A4F88431A4F8882100E738
:107080003D2784F85071394620460DB0BDE8F043E5
:107090000FF0EABA0023A4F88831A4F88431F0E6AE
:1070A000B4F88E31002B83D1628DB4F88C3140F26C
:1070B000E24101FB02F242F2107101FB0323013BAA
:1070C000B3FBF2F39BB2A4F88E316FE794F877002C
:1070D000012100F0070015F00DFE87E73D4615E79A
:1070E000002D4BD000261146304633461EE70023C4
:1070F000A4F88431204611F097F900E7304615E7EF
:107100000CF044F8014600283BD00023A4F8883155
:10711000238DC3801B23037100680CF001F8E5E6A2
:1071200094F939309342BFF6CFAEB8F1000F7FF437
:107130004BAFD4F878315A08DB0743D4C4F8782130
:10714000C2E628460AAA0BA904F1D409FFF760FB9E
:10715000484610F089FE18B3484610F085FE18B373
:1071600000232386A5E69DF8271020460FF07CFA21
:1071700000E7082120460FF077FAFBE6002FB1D197
:10718000F8E60123A4F88831B0E6B4F888110029A4
:107190007FF477AE6FE73E2120460FF065FAE9E60F
:1071A000FF200FF021FAD7E70246D4E91E0109F0CB
:1071B000FBFE0028D4D194F83C30580744BFA38D7F
:1071C000238676E642F00042C4F87821FCE600BF50
:1071D0008D49FD1A070000009D5E030050EA05007E
:1071E00078EB050088E505008C49FD1A00CA9A3B3A
:1071F0002DE9F04F87B0CDE90423BDF84420037892
:107200000292BDF84820BDF84080BDF84C50468E33
:10721000B0F82E90B0F814B1019104460392002BFF
:1072200000F08E80013EB6B2A368D4F80C71721BD8
:1072300092B2002B009209DAE168626823F0004301
:1072400091422CBF7F18BF18A360FF1A009A638D6C
:1072500013FB02F39BB2B3FBF8F218FB02F080B20F
:1072600083421FFA82FA5AD2C01A40F2E2425E49C1
:1072700002FB00F0A0FB010159A3D3E90023FEF7B4
:107280003FFF20F07F400744D94494F839304D4403
:10729000AD1B554440F2E246DB09E58506FB08F5E7
:1072A00052D1524A5249534840F6BA0326F098FE4A
:1072B000404080F311884FF0030002DF0026A9460A
:1072C000029BA385039BA4F88C3129462046A4F891
:1072D0002A8011F045F8484BA18D2B44881DB3FB43
:1072E000F5F39AB29042A4F8862102D2521A063AD5
:1072F00092B2019BA4F8822113B10023A4F88E312D
:107300003B464A4631462046FFF70AFD94F8803155
:1073100043F0010384F8803107B0BDE8F08F08FB2B
:107320001231314840F2E24389B203FB01F1A1FB83
:1073300000012BA3D3E90023FEF7E2FE3F1AA3E7E7
:107340004E445E44B6B26FE7226C0099A36CDFF83E
:1073500098B002FB1133A36415F0B4FE814694F893
:107360007401C0F3420015F0AFFE049B814406FB9C
:1073700003F305FB09F9236509F574291F4B09F28D
:107380003F29A3FB09394FEA994303FB0AF0236421
:10739000A5EB0309A36C6A080344963A934228BFFD
:1073A0001346C4E911230023C4F87C31A0FB0B0170
:1073B0000BA3D3E90023FEF7A3FE114B059A3F1A56
:1073C000A3FB0230800A06FB00F005A3D3E90023EB
:1073D000A0FB0B01FEF794FE20F07F4670E700BF94
:1073E0008D49FD1A0700000000CA9A3B50EA0500CB
:1073F00008E6050088E505007FC3C90183DE1B435D
:107400005917B7D1000000002DE9F04F0B6891F833
:107410001180D3F80090037F176895B00446C3F33A
:107420008013D0F81E008DF83F30B8F1FF0F638C49
:1074300012900E461546ADF84C300DF1480A49D170
:107440009AE803001090ADF844102346E28D53F8FB
:107450002EBB9B78AB722A81D4F82A306B60D4F8AB
:107460003A30AB6105F1180094F83E300371052104
:1074700009F020FF6B7F00F03F0060F305036B779E
:1074800094F83F30C3F30402AA77A28EEA81012860
:1074900003F01F0392B205D91B3303F01F030B2B1C
:1074A00000D81ABB0022C9F8142095F8203062F3E6
:1074B000000385F82030E5680126584621462671EC
:1074C0000BF024FE28682E7129460BF029FE15B01A
:1074D000BDE8F08F10AA0DF13F01404614F07AF993
:1074E0009DF83F3002338DF83F30AEE7336800211E
:1074F0005960E38EEA892B8240F2E24303FB02F2F9
:107500000B92628E0D92384610F03EFF94F83F20A9
:1075100097F87411520962F3430187F8741115F05A
:10752000D1FD0C9097F87401C0F3420015F0CCFD2A
:107530000C9A0B99104401FB00F0B94A00F5742035
:1075400000F23F20A2FB00204A08800C963A6862B5
:10755000AA6294F8312040F2E24302FB03F3AB63EA
:10756000238FA7F88C31384610F0FAFE0B99AD4BFB
:10757000AD4AC7F890210B44B3FBF1F39AB2A7F8D8
:107580008621298A881D824204DDC1F57F41FA31B6
:107590000A4492B2A7F882216B68C7F87831234673
:1075A00013F81C2FC2F340120C92DA0700F113817A
:1075B0004FF48073A38399F8260014F001FE04F1C0
:1075C0002B03002800F0EB80626AC4F82B20228D88
:1075D0009A80B8F1FF0F00F0E680BAF804301298F4
:1075E000A4F82930C4F825009DF83F30A3771098FF
:1075F000BDF84430C4F81F00A4F82330EB8963863B
:107600002B8AA386B7F88C31E38697F87431C3F3DD
:10761000420384F8383038460EF0C4FCA881E0807C
:107620002146584674680BF071FDAB89E3801C233A
:1076300023710C9BD4F80080002B40F0BA800C9B87
:107640002377214640460BF06BFD95F85B00B5F8BB
:107650005080B5F85240012100F0070015F04AFBB8
:10766000444404F2D514DFF8CC81044482466F48C8
:107670000721E4FB080131230024BB607C6066A382
:10768000D3E90023FC60FEF73BFD20F07F4038612A
:107690000B9B6D6A0D995D1BF36840F2E24202FBA1
:1076A000013303F2B241A1EB0A0A22460221012072
:1076B00009F0B2FC48460EF037F90246AAFB080171
:1076C000924655A3D3E90023FEF71AFDCDF80490A6
:1076D000B3685749009120F07F480AF102023A3B13
:1076E000D2B22046434401210AF0B2FF01287FD0E4
:1076F00099F82430DB0766D438460EF053FC4D4B26
:10770000A5FB03A9044644A3D3E9002350464946F8
:10771000FEF7F6FC484BB668484A079220F07F45D2
:10772000A5FB0331BAEB0300454B059340F2D1139F
:10773000069708933B694FF0000BCDE903B34FF078
:10774000070303FB051169EB01014FF47A72002373
:10775000FEF7D6FC03343A3EE4B2CDE90150CDF851
:10776000008033462246012158460AF09BFE10F065
:10777000FD0F0CD0334A344934484FF4E97326F0F6
:107780002FFC404080F311884FF0030002DF0122FC
:107790000221104609F040FC15B0BDE8F08FC4F896
:1077A0002B00988015E70022C4F82520A4F8292092
:1077B0001AE76B7F43F040036B77281D13F014FE2C
:1077C0000123E8833CE70023012200931846114679
:1077D0000AF0FCFE90E71B4A1D491C48F82326F0DE
:1077E000FFFB404080F311884FF0030002DFDFE62B
:1077F0000BF064FD81453FF47BAF124A15491348F5
:1078000040F2792326F0ECFB404080F311884FF0E2
:10781000030002DF6CE700BF8D49FD1A070000007E
:1078200083DE1B437FC3C901404B4C008C49FD1ACA
:10783000A9B1030000CA9A3B8D49FD1A79B1030032
:10784000E5B1030000F0050014EB050088E5050034
:1078500024E805005CF0050010B5334C33490023E3
:1078600004F1FF3C14F83320072A02EB820E05D8FE
:1078700011F83E206FF3451201F83E201CF833202A
:107880006FF300020CF833200133082BEAD1284AA9
:10789000284C002313700A7863F300020A7091F8F1
:1078A000282063F3000281F8282091F8502063F328
:1078B000000281F8502091F8782063F3000281F8EB
:1078C000782091F8A02063F3000281F8A02091F8BD
:1078D000C82063F3000281F8C82091F8F02063F318
:1078E000000281F8F02091F8182163F3000281F87A
:1078F0001821114A9FED0A7B1370104B83ED007B1A
:107900000F4B236028B1BDE810400E490E4835F0FA
:1079100049B9BDE810400C4835F052B9AFF30080CA
:10792000FFFFFFFFFFFFFFFFC54200208441002053
:10793000845900209440002083590020D81A002048
:10794000A0BB0D00D9BE0300A81A00200000000053
:107950002DE9F04F8FB00DF137010446DFF8E0A0BC
:10796000DFF8E0800DF136000BF058FC9DF8363062
:107970009DF837B00B930AF0AFFEDAF80060A6FB73
:10798000085629A3D3E9002300278146314628461B
:10799000FEF7B6FBCDE90777069420F07F44DAF8CE
:1079A0000400234B0593A0FB08011FA3D3E9002388
:1079B000FEF7A6FB1F4B20F07F40A4FB03310722FC
:1079C00002FB0411CDE90370E81A66EB01014FF4E4
:1079D0007A720023FEF794FB0097CDE901404B46F5
:1079E0000B985A4603210AF05DFD10F0FD0404D007
:1079F0006FF08B000FB0BDE8F08F0F480F4A0023E7
:107A000024F014FB20B9DAF80C000FB0BDE8F08FB9
:107A10009DF837209DF836000094234603210AF094
:107A2000D5FD6FF07300E5E78D49FD1A07000000F2
:107A30006DC403008D49FD1A38430020447B0B00C0
:107A40005043002000CA9A3B38B50F4D04460AF057
:107A500043FEA9680AF042FE696803460B48B3FB7F
:107A6000F4F4A1FB00011C4405A3D3E90023FEF7B5
:107A700047FB20F07F40844294BF0020012038BDA6
:107A80008D49FD1A070000005043002000CA9A3BB0
:107A9000F0B5C468636883B00546002B63D116F067
:107AA00037FD002016F05AFD0021084616F048FD6B
:107AB00000222521082016F087FD454B019301A8DF
:107AC00016F06AFD434940F25B6016F00FFE237A20
:107AD000C3F3420262F306132046237215F012FD2F
:107AE00014F042FC58BB637A9B071FD127682E68AD
:107AF000384615F09BF806446A6806F10901012032
:107B000016F03CFF16F0FAFF20460DF019FF811C1D
:107B10003246C9B2384615F097F8054670BB204684
:107B200015F02CF888B9002003B0F0BD012014F046
:107B300099F84178821C007816F0C0FED6E7607A8A
:107B400010F0030018BF0120F1E7234A234924481D
:107B500040F22C4326F044FA404080F311884FF065
:107B6000030002DFDFE793F820309A0797D01D4823
:107B7000214616F08BFC16F073FDD4E7164A1A491D
:107B8000174840F2144326F02BFA184B0721A5FBA7
:107B9000030301FB05310CA3D3E90023FEF7B0FA80
:107BA00013490246134826F01BFA404080F311881F
:107BB0004FF0030002DF1048214616F067FC16F074
:107BC0004FFD6FF08B00AFE700CA9A3B000000004A
:107BD000D6BE898E5555550030F40500F4E60500F3
:107BE00088E50500D1CD030008E605008D49FD1AA2
:107BF000E0F40500B4F40500D5D003000000000057
:107C00002DE9F041C468A2894FF6FF739A4282B011
:107C100000F0C780054615F09DFF2B89628AE08A37
:107C20001A4492B21044637FA28280B2411CE18266
:107C30005E064FF00001618204F1180100F18C80B2
:107C400003F03F000B46A17F009004F11F0013F0EA
:107C500083FB0646D4E90B231344D4E90D0200212B
:107C60000244E1626163A16AA26394F872208B42CC
:107C700028BF0B4612F00402236377D016F048FCAD
:107C8000002016F06BFC201D16F086FC2389A17ADB
:107C900040F25B6043EA014116F028FD304614F0E3
:107CA000E5FF2146584816F0F1FB962016F05AFEE3
:107CB00094F85A2094F85B00C2F3C003002102F04C
:107CC000070200F0070016F077FD204615F0A4FF2C
:107CD00027682E68384614F0A9FF06446A6806F142
:107CE0000901002016F04AFE804616F0DBFE002057
:107CF00016F0F2FE236B94F85B0003F13002A36BE5
:107D000000F00700012103EB420516F09BFC4544FF
:107D1000054494F85B0000F00700022824D00428F2
:107D20000CBF4FF4BC73282301211D4416F08CFCBA
:107D3000284416F0A9FEA18903313246C9B238465B
:107D400014F082FF054698BB204614F017FFD0B907
:107D5000002002B0BDE8F0810A4603F03F03E18B4A
:107D600013F046FB064675E71823DDE7D4E9170153
:107D700009F01AF9002881D194F8723043F0040315
:107D800084F872307AE7214A2149224840F255139B
:107D900026F026F9404080F311884FF0030002DFFF
:107DA000D6E71D48214616F071FB16F059FCCFE7C7
:107DB000164A1A49174840F24B1326F011F9184B8E
:107DC0000721A5FB030301FB05310DA3D3E9002324
:107DD000FEF796F913490246134826F001F9404090
:107DE00080F311884FF0030002DF1048214616F09F
:107DF0004DFB16F035FC6FF08B00AAE7AFF3008067
:107E000000CA9A3B0000000071DE030058F505002F
:107E1000F4E6050088E50500D1CD030008E605007D
:107E20008D49FD1AACF50500B4F40500ADCD030095
:107E30002DE9F0472DED028B9FED498B4A4E84B022
:107E400004464FF02003EFF3118783F31288BFF34A
:107E50006F8FD4F8C8508DB9022104F1E00034F0DE
:107E6000EAFD002843D100238DED008B029304F13D
:107E7000D00239463D4824F0B7FDE2E7D4F8CC20E3
:107E80002B68C4F8C830954208BFC4F8CC30D4F889
:107E9000E03043F00203C4F8E030EB6823F0040361
:107EA00043F00103EB606B6887F31188BFF36F8FBA
:107EB000284698474FF02003EFF3118983F3128887
:107EC000BFF36F8FEB68990723F0010219D4EA60C2
:107ED000D4F8E03023F00203C4F8E03089F31188CD
:107EE000BFF36F8FDB05ACD424F05EFCA9E704F18F
:107EF000D80500220121284634F0A3FF0028F8D13C
:107F0000B1E7306823F00303EB600028E0D00027DE
:107F1000D0F80080BA460028DAD04268954201467F
:107F20000BD1016897B972683160824200D17160EB
:107F300040F808AB24F054F83946B8F1000F0BD0E4
:107F4000D8F8002040460F469046E4E73960726852
:107F5000824208BF7760EBE74246F3E7AFF3008069
:107F6000FFFFFFFFFFFFFFFF0C580020AC5A00206F
:107F7000014824F037B900BF7002002007B534F083
:107F80009DFF4FF47A72A0FB020302FB0131C00B8C
:107F9000074A40EA4140106000234FF40042054880
:107FA000CDE9002324F0FEFE002003B05DF804FBC1
:107FB000802E0020D00C0020014B187800F03EBA33
:107FC0008E580020044B1A78824202D01870FFF7B6
:107FD000F3BF0020704700BF8E58002008B534F072
:107FE0006DFF4FF47A72A0FB020302FB0131C00B5C
:107FF000044A40EA41401060BDE808400020FFF715
:10800000E1BF00BF802E002008B534F057FF4FF4C9
:108010007A72A0FB020302FB0131084AC30B12680B
:1080200043EA41439B1A47F23052934204DDBDE8D4
:1080300008400120FFF7C6BF08BD00BF802E00200A
:10804000014B1878704700BF8E580020F8B50446E1
:1080500010B900252846F8BD0378002BF9D00F4E43
:108060000F4FBE420FD30D4EBE42F2D2306834F0F5
:1080700035FB30B1356821462868FEF7ABF900289A
:10808000E8D00436F0E7306834F028FB18B13568E2
:108090002B68A342DED00436E3E700BF9C7F0600D6
:1080A000A87F060030B5184C8DB00022002303A92C
:1080B000204623F051FE08B10DB030BDDDE90415B6
:1080C000039800F055F80028EFDBFF238DF81830F7
:1080D000B5FA85F35B0907908DF8203034F0EEFE99
:1080E0004FF47A72A0FB020302FB0131C00B40EA9D
:1080F0004140C90B8DE8030006ABCDE90A010FCB67
:1081000000F0B6F9D1E700BF980E00201FB583F04C
:108110000103CDE9011203930022002301A90448C1
:1081200023F0C4FD034824F05DF805B05DF804FBBE
:10813000980E0020842E002010B5044678B109491D
:10814000094834F0EBFCA36808491B6820469847AF
:10815000A3689B680BB120469847002010BD6FF0C4
:108160001500FBE7A5800200842E00200D8102008F
:1081700001EB001106314A2905D8044B53F82100C0
:1081800008B1013870476FF0150070470CDC05002E
:1081900030B51C4C04EB00148FB0606883683A2142
:1081A000DB68984758BB60686189836804AD1B69C8
:1081B0002A46984718BB95E803000123069307ABAE
:1081C00083E803006389ADF8243034F077FE4FF480
:1081D0007A75A0FB053205FB0121DB0B43EA414325
:1081E000C90BCDE90A31237B8DF830300EAB13E992
:1081F0000F008DE80F0006AB0FCB00F05FF90FB05A
:1082000030BD00BF90020020094BBFF35B8F53E8E5
:10821000002F22F0010143E800100028F7D1BFF33E
:108220005B8FD30702D50020FFF7B2BF704700BFB6
:10823000942E002008B50549486828B183689B68DA
:1082400013B1034A08319847002008BD900200206E
:108250005582020008B50E4B994218D134F0FEFA4F
:1082600088B1BFF35B8F0B4B53E8001F41F0010156
:1082700043E80012002AF7D1BFF35B8F0648BDE840
:10828000084023F0AFBFBDE80840FFF781BF08BD3D
:1082900098020020942E002080020020F8B50F4D97
:1082A0000F4E761B07460C4605EBC105C6F3C70605
:1082B000A64201DC00200CE02A683B689A4209D102
:1082C0003C716B6838461B68984718B1431E012BF8
:1082D000F0D9F8BD01340835EAE700BFC46E0600E6
:1082E0000C6F060000B58BB0064B074A2821684684
:1082F00024F030FE05490122684602F0F3F80BB085
:108300005DF804FB0A060600140606008F580020DC
:108310002DE9F041466807693179F38804463068F1
:10832000D0F810E0D0F80880DEF80050DA0754BF2B
:1083300043F4B01383F4D0134FF0010C23F48012F4
:108340000CFA01FCDB074CBF45EA0C0525EA0C05DD
:10835000CEF80050D8F80030984760BB02F016FA0B
:10836000164802F04FF9054610BB1549154834F080
:1083700019FC154802F0F0F87B785BB901233B70DB
:10838000002200230F4823F095FFA3681B680BB160
:1083900020469847318959B140F2E7304FF47A725C
:1083A000002300EBC1300021FDF7AAFE24F07EFA85
:1083B0002846BDE8F0816FF00405F9E7A00200202F
:1083C000E5820200901000202706060008B54FF451
:1083D000F0120023024823F0A1FF00EAE07008BD7C
:1083E00090100020F7B50C461646114901AA1F4609
:1083F00026F021F9B0B1019BA3B9012C15D10D4D87
:10840000224629463846B047002806DB2B780A4822
:108410006C7023B125F08FF8002003B0F0BD25F07B
:108420009CF8F9E76FF00100F7E76FF01500F4E74B
:108430000A0606008F5800209CD805001FB50023AF
:10844000CDE90233044B8DF80C0001A8019325F00F
:108450005CF805B05DF804FB50DD05000268034BD5
:108460009A420CBF08300020704700BF50DD050065
:1084700084B030B589B00CAC84E80F0000230193C0
:108480000CAD084B00930FCD02AC0FC495E8030070
:1084900084E80300684625F038F809B0BDE83040AC
:1084A00004B0704754DD05000268034B9A420CBFCC
:1084B00008300020704700BF54DD050084B030B59F
:1084C0008BB00EAC84E80F00002301930EAD084B77
:1084D00000930FCD02AC0FC495E80F0084E80F00A5
:1084E000684625F012F80BB0BDE8304004B0704784
:1084F00058DD05000268034B9A420CBF083000208B
:10850000704700BF58DD05001FB50023CDE90233D9
:10851000044B8DF80C0001A8019324F0F6FF05B080
:108520005DF804FB60DD050082B038B504A981E880
:108530000C000546114823F075F90446A0B16B689C
:10854000012B0CD0022B05D0A3B9BDE8384002B0F6
:1085500025F029B825F02EF800282046F5DCBDE8E6
:10856000384002B025F018B86FF00400BDE838407C
:1085700002B070476FF08500F8E700BF0A060600FA
:1085800082B010B502A981E80C0004460B4823F024
:1085900049F978B16368022B04D00020BDE810408F
:1085A00002B0704725F006F80028CCBF002001205B
:1085B0006060F2E76FF00400F0E700BF0A06060013
:1085C0001FB50023CDE90233044B8DF80C0001A840
:1085D000019324F09AFF05B05DF804FBA0DD0500CF
:1085E0000268034B9A420CBF08300020704700BF5E
:1085F000A0DD050008B500F0A7FABDE80840014974
:1086000034F0B9BAB802002007B5084834F066F86B
:1086100048B14FF4F0120023CDE9002304480022B2
:10862000002324F0BFFB03B05DF804FBECD8050089
:10863000080D002008B5FFF711FF10B96FF0850095
:1086400008BDFFF7FDFC38B10138C0B20128F5D8EC
:10865000034834F07AFC01E0FFF7D6FF0020EFE793
:10866000080D002037B50E4CA5682D21EB6820467B
:10867000984790B92D212B696A462046984760B9E2
:10868000084C00982378834207D0C0B2207001F0D4
:1086900001FF10B92078FFF793FF03B030BD00BF92
:1086A000ECD805009158002008B5054834F016F8BC
:1086B00018B1FFF7A9FF002008BD6FF01200FBE71B
:1086C000ECD80500014B1878704700BF9158002086
:1086D0001FB50023CDE90233044B8DF80C0001A82F
:1086E000019324F012FF05B05DF804FBA8DD05003E
:1086F0001FB50C240294044C0194BDF8184000945A
:1087000029F0B6FB04B010BDB55800201FB51024E9
:108710000294044C0194BDF81840009429F0A8FB81
:1087200004B010BDA558002007B5064B00930649BC
:10873000064805234FF4247223F05AFD002003B0AD
:108740005DF804FBB0DD0500B05A0020C010002029
:1087500070B50F4D0F4E8AB000220023694628469F
:1087600023F0FAFA044608B10AB070BD2146182277
:1087700004A834F06BFF10230DEB0301204605968F
:10878000CDF818D0ADF81C3007F07AF9E4E700BF57
:10879000380E0020CCDD0500F0B50E4E0E4D0F4F0B
:1087A00087B00C4900220023284623F0D5FA04465E
:1087B00008B107B0F0BD21461822684634F046FFE4
:1087C0000C2369462046CDE90176ADF80C3007F060
:1087D00057F9E6E7B5580020680E002058DE05007E
:1087E0001FB50E490E4840F6CD42002323F05EFA35
:1087F000044670B110F10B0F08D100220023694626
:10880000074823F0A9FAFFF7EBFF0446204604B01F
:1088100010BD0449044834F0AEF9F7E7A55800202C
:10882000380E0020D8020020C0100020C2080549E0
:1088300000F0070001238340885C03438B54FFF75B
:10884000CFBF00BFA558002010B4C108064C00F0EF
:108850000700635C0122824023EA020363545DF84F
:10886000044BFFF7BDBF00BFA558002030B589B04D
:1088700001AD85E807000F4840F6CD4200232946A8
:1088800023F014FA044680B110F10B0F0AD1002234
:10889000002305A9074823F05FFA95E80700FFF7D2
:1088A000E5FF0446204609B030BD0349034834F0D3
:1088B00062F9F7E7680E0020C8020020C01000200F
:1088C000014B1970704700BFC258002010B500203E
:1088D00003F0E8FD044690B901F058FF094801F0A3
:1088E0003BFE094801F038FE084805F0CBF808487F
:1088F00005F046FA074B08481C7023F073FC20462D
:1089000010BD00BF64070600680706004003002092
:1089100030030020C158002060030020094BB1FA49
:1089200081F010B540090C461870FFF7D1FE3C2CC1
:1089300007D1054B054801221A70BDE8104023F00D
:1089400051BC10BDC3580020C15800206003002056
:1089500070B503788AB004460E4607AD032B20D8C5
:10896000DFE803F002191B1D11492846FDF73CFD05
:10897000059563780493A3780393E37802932379AE
:10898000019363790093A3790A4A1E21304624F0AB
:10899000E1FA0AB070BD0849E7E70849E5E7084988
:1089A000E3E7084A0A21284624F0D4FAE0E700BFAA
:1089B0006B07060094070600720706007907060099
:1089C000830706008D07060010B588B028F059F916
:1089D0006946FFF7BDFF0024054B20461C70FFF7DA
:1089E00077FE044B04481C7023F0FCFB08B010BD5C
:1089F000C3580020C15800206003002070B5204EED
:108A0000204B3068B2881C781F49B3798AB003AD17
:108A10000390ADF8102000202A46AB7108F0F6F85C
:108A200031460722284634F0ABFD184B0646D0B13C
:108A3000ACB903202246214601241C700023CDE955
:108A40000602CDE90815ADF814308DF81630009304
:108A50001A46194605A804F041FA0AB070BD132061
:108A6000A022F021E8E70A4D18700FCD05AC0FC425
:108A70002B6823600749009633460322EAE700BFCC
:108A800081090600C1580020998A0200C2580020BE
:108A900060DB050080DE050038B507220C4606497C
:108AA000054634F06DFD28B12B682360AB88A380A8
:108AB000AB79A37138BD00BF81090600014B18785E
:108AC000704700BFC358002008B5044801F00AFAF7
:108AD000002818BF6FF0150008BD00BFE18A020032
:108AE0000A2804D0024B1870024823F07BBB704761
:108AF0009D0C002070030020084B1B780B2B4FF0BF
:108B000001000AD8984010F4CD6F05D110F4016F20
:108B10000CBF012000207047022070479D0C0020F0
:108B200007B5064B0093064906480A234FF44072E6
:108B300023F05EFB002003B05DF804FB98DE050027
:108B4000405D0020A811002000487047A8110020B7
:108B500010B50648FFF7F0FA044618B900F080F89F
:108B6000204610BD6FF08504FAE700BFC4D80500A9
:108B70000149024833F0FFBFB0030020782D0020E8
:108B800008B5FFF76BFC78B103782BB1013B012BE3
:108B900008D96FF0150004E00549064833F0EBFFF3
:108BA000002008BD0449F8E76FF08500F9E700BF31
:108BB00090030020782D0020A003002007B507486F
:108BC00083685B6898474FF4A47200230448CDE99A
:108BD000002324F0E7F803B05DF804FBB0D80500EB
:108BE000400D002010B5044834F0AFF90348836805
:108BF000BDE810401B681847400D0020B0D80500A4
:108C000038B504460D4833F069FDB0B10C4B012274
:108C10001A7021F08DF80B4A0021054620F048FD1E
:108C2000094B4361A86000F027F830B12BF082F9BE
:108C30002046BDE83840FFF7C1BF38BDB0D80500B9
:108C4000C458002050FE0500F4F8050000487047A5
:108C5000782D0020014B1878704700BFC4580020C1
:108C600008B50349034833F086FF002008BD00BF64
:108C700080030020782D002038B500201BF0FCFA7E
:108C80000E4D04460146284600F0B8F8284624F068
:108C900077FD0B4D00231A4603212CF015FA2146CF
:108CA000284600F011F9284624F06CFD00231A46EE
:108CB00001212CF009FA204638BD00BFA02E00206B
:108CC000982E002010B504460E484FF0FF324FF0AA
:108CD000FF3323F09BF82046FFF782FC68B104784D
:108CE000FFF70AFF084B003818BF01201C705870AE
:108CF0000448BDE8104023F003B9FFF7E3FC044645
:108D0000EEE700BF100E0020C558002010B5044645
:108D1000FFF7A0FF38B12046FFF7D4FFFFF796FF1B
:108D2000024933F028FF002010BD00BFC00300201F
:108D30002DE9F0431B4B1C4E1C681C4FDFF87C8058
:108D400087B0ADF8040014B907B0BDE8F0839DF812
:108D50000520D4F804909DF804500023CDE9033396
:108D60008DF814301AB1314603A8FDF73DFB5F2D95
:108D70004FF0090209D90E4903A834F0E9FB03A911
:108D8000484633F0FFF92468DDE7412D01D9094950
:108D9000F2E7232D01D90849EEE7052D8CBF4146A6
:108DA0003946E9E7A82E0020CF070600E4070600B1
:108DB000D4070600D8070600DC070600E007060017
:108DC00073B50C4C4FF0FF324FF0FF33204623F0C9
:108DD0001DF8094B1E785D78204623F091F88DF838
:108DE00004608DF80550019802B0BDE87040FFF7AF
:108DF0009FBF00BF100E0020C558002010B50446CC
:108E0000084621F04FFE00232360084B60605A683B
:108E10004AB9C3E900440020FFF754FF0020FFF7E0
:108E2000CFFF002010BD14605C60F4E7A82E002086
:108E300010B5084C4FF0FF324FF0FF33204622F0C0
:108E4000E5FFFFF73BFE044B18702046BDE81040DD
:108E500023F056B8240E0020C758002008B5FFF7AD
:108E6000F9FE30B1FFF7E4FFFFF7F0FE024933F0FF
:108E700082FE002008BD00BFD003002070B54FF077
:108E8000FF324FF0FF330B4822F0C0FF0A4B1E7831
:108E900008480A4D23F034F8094B1C68094B002E92
:108EA00008BF1D4604B970BD6068294633F06AF9F1
:108EB0002468F7E7240E0020C7580020E8070600C2
:108EC000B02E0020F007060010B50446084621F039
:108ED000E9FD00232360084B60605A6842B9C3E98A
:108EE0000044FFF7A5FF0020FFF7C8FF002010BDDA
:108EF00014605C60F5E700BFB02E002010B5094C8F
:108F00000A44914200D110BD11F8013B58400309B9
:108F10000001E35CC0B2434018091B01205CDBB2D6
:108F20005840EEE7F8070600014B1B68184700BFE2
:108F3000E003002030B585B004460D461022002124
:108F4000684634F083FB02238DF802302A46044B36
:108F500001932146684624F08DF805B030BD00BF6E
:108F6000298F020080B505460E461746984623F025
:108F7000D1FC034634F086FBDFF81890044649F82C
:108F80000030424630463946A84754F8090001F0FF
:108F90007DFF00BF080000002DE9F047058B044667
:108FA0002807904611D4022905F0070540F0CD802E
:108FB000204624F0EBFE78B10138218B042811D82B
:108FC000DFE800F0C3106D85950001290CBF45F066
:108FD000100545F02005258388F31188BFF36F8FB6
:108FE000BDE8F08701F0070AAA4500F0A680002737
:108FF000B9463E46A368002B00F0BD8041F0080151
:10900000218388F31188BFF36F8FA168002900F0D6
:10901000BB800D68002900F0B780D1F8048033468A
:1090200052462046C047002D76D02B6829461D4663
:10903000F0E701F007035A1F012A1BD8002221F094
:109040000701062B276889B2C4E9002209D13B46F3
:1090500003E0628B013262831B68002BF9D141F07F
:1090600002012183204624F091FE00287BD041F0AC
:10907000200177E0042B0AD121F0070189B2218376
:10908000204624F083FE10B141F020012183218B82
:1090900001F0070AAA4550D00027B946AAE723697C
:1090A00021F0070141F00601062DD3F8009021833D
:1090B0002DD1B9F1000F40D041F00801218388F390
:1090C0001188BFF36F8F3A492046C84729E021F045
:1090D0000701236941F0040189B2042DD3F80490FB
:1090E0002183E6D000273E464FF0040A82E721F0B4
:1090F0000701236941F0050189B2052DD3F80890D5
:109100002183D6D000273E464FF0050A72E700279C
:109110003E464FF0060A6DE72B4687E7B9F1000F90
:10912000D1D14FF02003EFF3118883F31288BFF3FE
:109130006F8F238B23F008032383258BEA062ED51C
:1091400025F01003238305F007056669218B002EA7
:10915000BFF66FAF00232768C4E9003321F0070191
:1091600041F001012183218B01F0070AAA454FF04C
:1091700000097FF43FAF002F9BD041F0080121830D
:1091800088F31188BFF36F8F002FC7D03D68394631
:1091900033465246204624F025FE2F46F4E7AB0620
:1091A0007FF51AAF25F02003238305F00705FFE6BE
:1091B00011DE040008B504464FF02002EFF31183DE
:1091C00082F31288BFF36F8F18F052FA204602F034
:1091D0000DF9034824F053FB01F0C8FFFCE700BF82
:1091E0000808060018F06EBA2DE9F7430F46064648
:1091F0000821C06ADFF8509024F08DFF3C68241AE3
:1092000080463C6004EA0905AC4203D8002003B064
:10921000BDE8F08308236A462146304624F0EEFE7E
:109220000028F4D16946304624F07FFF40B1BDF8F4
:109230000230BDF804203C6005EA090513441D44D2
:10924000A4EB0804E0E700BF0000FFFF2DE9F047B2
:10925000044688B000F11407384633F01EFBA06ABC
:109260008368DB689847E06228B96FF015052846E7
:1092700008B0BDE8F087A06A8368DB689847036898
:10928000013B1F2BF1D8A06A216805AA2AF03AF900
:109290000028EAD1A589002DE7D0069BB5FBF3F2A3
:1092A00003FB1255002DE0D1E389012BDDD9E36AE0
:1092B000009593F804904FF0FF334FF0FF3238469B
:1092C00022F0A4FDE06A082124F025FFA846064606
:1092D000E3891FFA85FA534508D8E389434523D12A
:1092E000384622F00DFE6FF02C05C0E7A1892B0453
:1092F000891B13FA81F14A4608232046009124F085
:10930000CBFE78B16946204624F086FE08F10108BC
:10931000009908234A4620461FFA88F824F0BCFE2C
:109320000028DAD00135D3E753450BD10099082343
:109330004A46891B204624F0AFFE18B969462046EC
:1093400024F06AFE69462046FFF74EFF054618B135
:10935000384622F0D5FD8AE7009B63604FEA134848
:109360004FEA0848C4F80880D4E9011399420FD3A2
:10937000082301AA204624F041FE05460028E7D133
:1093800001AB13F8012B914533D10135082DF8D1EC
:1093900063681B0C1B0469462046009324F03CFEC6
:1093A000A38900994A46204624F076FE051ECFDBAD
:1093B000636876D006EB03084FF6FF79A389CDF8F2
:1093C00000801FFA88F29B1B9A422ED3002361680B
:1093D000002B43D0090C090400912046694624F073
:1093E0001BFE0099204624F07CFE0546002D74D01B
:1093F000AEE701A9204624F098FE626810B9921BDE
:109400006260B1E7BDF80850BDF80610E06AC4F824
:109410000880294424F07FFE40449042A060EED1B1
:10942000002DECD06FF01C0568E0082303AA41462C
:10943000204624F0E3FD0546002889D103A92046F3
:1094400024F073FE30B1BDF80C304B4502D1BDF8AD
:1094500010300BB1B044B1E70123B8E7204624F047
:1094600040FE054600287FF473AF6368264AA18951
:1094700013400B44A3EB460363601340A3602046F4
:1094800024F037FFB1E75B1A4A46204624F004FE79
:10949000051EFFF65DAF08D0E26AA36812681344A8
:1094A000A360D4E901318B42EDD86168A38901EB57
:1094B00046029A429AD1DFF85080A26801EA080376
:1094C0009A4293D0204624F00CFE054600287FF4F3
:1094D0003FAF636803EA0803A360A389A288A3EBF4
:1094E00046039A4206D0384622F00AFD012323742F
:1094F0000025BCE6204624F0E5FE0546384622F06D
:10950000FFFC002DF2D0B2E60000FFFF2DE9F04F86
:109510001D46037C89B0044689469046002B00F026
:10952000BE80C26A0821104624F0F5FD2946824615
:10953000104624F0F0FDA389A3EB8A039D42074661
:1095400000F2B0801DB1B8F1000F00F0AB8063688D
:10955000039304AA03A92046DDF80CB024F01DFEF5
:109560000646002864D1BDF810304B4505D062682E
:10957000039B9A42EDD1E5B95AE004A9204624F0B4
:10958000D4FD0028F3D0BDF81200BDF8143075B139
:109590009D420ED14FEA1B41090401442B4642462D
:1095A000204624F046FD002803DC064640E0002B60
:1095B0003ED0002F40D104F1140301934FF0FF324D
:1095C0000198DFF8E8B04FF0FF3322F01FFCE38989
:1095D0009E4261D0D4E90123F9188A422FD3ADF815
:1095E0001A3006A8FF238DF81E30ADF81890ADF89C
:1095F0001C5024F048FDA1682B464246204624F02A
:1096000016FE29468246E06A24F085FDA2680244DF
:10961000A260BAF1000F07D106A9204624F041FE4E
:10962000002814BF8246AA46019822F069FC5646DB
:10963000304609B0BDE8F08F5744BFB2BBE7E06ADF
:10964000082124F068FD4FF6FF73ADF818300021B3
:109650008DF81E30A389ADF81C10111802EA0B0218
:109660001A44101A606006A8ADF81A1024F00BFD19
:1096700006A9204624F015FE211D204624F0CCFC2E
:10968000636803EA0B03A360204624F032FE82469F
:109690000028C9D101369AE76FF01B0AC4E76FF0C2
:1096A0000C06C5E76FF01506C2E700BF0000FFFF1C
:1096B000014B036000207047ACDE050070B5114B14
:1096C0001C680D46DCB1104B196800238B4202DB8D
:1096D0006FF0010070BD224612F8106B864202D076
:1096E00001331446F2E7E06810B96FF01200F1E7B9
:1096F00032F0F4FF0028F8D02C600020EAE76FF089
:109700000C00E7E7E4030020ACDE050070B588B08C
:1097100005460C46C0B269461646FFF7CFFF002843
:109720001BDB0098C8B143680293836822680195E7
:10973000CDE903360023CDE906230593C56824F05F
:1097400010FF6DB12846084901AA29F0DFFE0798ED
:1097500008B9059B236008B070BD6FF01500FAE7EB
:109760006FF01200F7E700BF65E50400F0B40C4BA2
:109770000C4E5F6A0C4BB34203D36FF08500F0BC14
:1097800070475D68BD4209D31C693CB195F802C0C1
:109790000579AC4502D12346F0BC18472433EAE7EB
:1097A000B82E00208D1000208D1000202DE9F047EC
:1097B000134CDFF85080DFF8509005460E461746F0
:1097C000444503D36FF08500BDE8F0876268D9F89F
:1097D00024309A4212D3A36983B1907829798842C0
:1097E00005D13A4631462846BDE8F0471847527938
:1097F000012A03D13A463146284698472434DFE708
:109800008D1000208D100020B82E00202DE9F04191
:109810000B4CDFF8308005460E461746444502D310
:109820006FF0850009E063690BB92434F6E73A4626
:109830003146284698470028F7D1BDE8F08100BF9F
:109840008D1000208D10002010B5044629F023FB58
:1098500010F1780F00D050B9054A204624F0A4FE3C
:10986000D2F8C43023EA0003C2F8C430002010BD8F
:10987000B82E0020024B00221A605A60704700BFC9
:10988000732F002070B50B4B0B4CA34201D300206B
:1098900070BD196A1E7F00220439D5B2AE4201D8CC
:1098A0002433F2E7013211F832508542F5D101201C
:1098B000EEE700BF8D1000208D10002008B509488C
:1098C0000378C3F341130A3350F823303BB100F15E
:1098D000080200F110019847C043C00F08BD1846A8
:1098E000FCE700BFB82E002004282DE9F14FDFF877
:1098F000A09004460F4616D001282DD1DFF88C80A9
:1099000098F8B93043B300F065FD1F4D4D4520D2A6
:10991000D5F820B04FF0000A2B7F5FFA8AF6B342E9
:1099200004D82435F2E7FFF7A5FFE7E70BEBC606FF
:109930000AF1010A307929F0AEFA0246307924F0B2
:1099400033FED8F8C430002A23EA0003C8F8C43034
:10995000E2DA002388F8B9300B4D4D4508D30B4BA4
:109960001B6A6BB13946204601B0BDE8F04F18477D
:10997000EB681BB13A462146284698472435ECE768
:1099800001B0BDE8F08F00BF8D100020B82E002080
:109990008D10002073B5C4B263060D468DF80740E4
:1099A00007D02046FFF76EFF78B10D4B93F8BA0051
:1099B00058B10B4E204655B116F08EF8F3691BB125
:1099C0000DF1070108209847012002B070BD16F084
:1099D000ABF8F369002BF7D00DF107010920F2E78E
:1099E000B82E002073B586788DF80060037942792F
:1099F0001C4C43EA0223ADF80230C378304603F032
:109A000003038DF8043024F0CFFDD4F8C43018429D
:109A100005460BD0304600F0BFFC3046FFF714FF80
:109A200032F01CFF10B9962022F05AFF684616F05B
:109A30002FF810F1780F03D010B1002002B070BDE4
:109A40009DF8000016F0ACF810F1780F01D0002856
:109A5000F3D1D4F8C43001202B4384F8B900C4F802
:109A6000C430EBE7B82E00202DE9F047A34EB369D0
:109A700004460F461546FBB9237803F01F03012B5C
:109A800000F09D80022B00F0048133BB94F90000AC
:109A90002A686178002834DA062912D008292BD0E8
:109AA000D9B901231370517096F8C3305B0043F0AD
:109AB0000103137002232AE198470028DCD100201B
:109AC0000DE06288100A011F0129844605D9072884
:109AD00003D8716AD2B20C781CB96FF01500BDE8DA
:109AE000F0874E78664503D19A4200F00B8101332E
:109AF0002144F0E70B780AE196F8BA30137001239D
:109B000005E101390829E8D801A353F821F000BF85
:109B1000A99B0200DB9A0200B79B0200DB9A0200BD
:109B2000359B0200DB9A0200DB9A0200DB9A0200FE
:109B3000419B0200A07815F099FF0028BFD0CCE728
:109B40006388756A63BBFFF795FE638886F8BA3051
:109B5000F369002BB3D06A4903209847AFE76B78CD
:109B6000042B10D0052B11D0022B04D16F79638800
:109B7000BB4208BF01202B781D442B78002BEED16F
:109B80000028AAD0DFE795F80380F4E76388BB429A
:109B9000F1D1B8F1000FEED12846FFF723FFEAE735
:109BA000FF270020B846E8E76388012B95D1002302
:109BB00086F8C33083E76388012B8ED1F8E796F8E7
:109BC000BA30D5F800C0002B87D0756AA38894F806
:109BD00004E02A46107800283FF47FAF517802292C
:109BE00004D192F80480F04500F293800244F1E73A
:109BF0008CF800208CF80120396060E7154494E06F
:109C00000B2A7FF46AAF00274FF0FF08C146BA461F
:109C100006E06B78042B0FD0052B21D02B781D4448
:109C20002B78002BF5D1F36913B1514607209847E3
:109C3000002F7FF444AF50E795F80280A38895F891
:109C400003909845EAD163889945E7D1B8F1070FA9
:109C50001CD806EB0803AA4683F8BB900127DDE772
:109C6000A3884345DAD1A3784B450AD0AF7838466C
:109C700000F092FB3846FFF7E7FDB0FA80F77F0966
:109C8000CCE72846FFF7AEFE0746C7E7AA460027FF
:109C9000C4E794F900206378002A18DA002B7FF4D7
:109CA0001CAF24792D6863060AD02046FFF7EAFD31
:109CB00000283FF412AF96F8BA30002B3FF40DAFF6
:109CC0002946204615F050FF00236B70F2E6012B69
:109CD00008D0032B7FF401AF6388002B7FF4FDAE27
:109CE000012103E0618800297FF4F7AEA088FFF727
:109CF00051FE00287FF4E3AEEFE600BFB82E00204F
:109D0000722F0020022829607FF4F4AE4B883B605C
:109D1000D5E694F9000062780028BFF671AF002AFA
:109D20003FF466AF0A2A7FF4D8AE2A78002A3FF4BF
:109D3000D4AE697804297FF461AFA9788B427FF4AF
:109D40005DAF072B96BF9B19002393F8BB308CF8AF
:109D50000030D4E613B5164C237DF3B9E268A16850
:109D6000019201AB802024F02DFC019AA3681344DA
:109D7000A360E3689B1AE3606BB962B12369E28870
:109D80009A4208DD94F8C82093FBF2F102FB1133EC
:109D90000BB90123237502B010BD00231A461946E2
:109DA0008020237502B0BDE8104015F023BF00BF2E
:109DB000B82E002030B585B0002302460D46019331
:109DC000002858D1002935D108220B460DEB02019D
:109DD00029F07AF8002804DA802015F07DFE05B01D
:109DE00030BD2A4C029A2260039A626004F1380264
:109DF000A2609DF90820BDF80E302575002AC4E93F
:109E000003550ADB802B04D9802015F065FE002065
:109E1000E3E713B1C4E90333E1E7FFF74FFD00289F
:109E2000DAD0E28823699A42D4BFE260E360FFF7A8
:109E300091FFD4E7154CD4E90215002D01AB04DCE9
:109E400029F042F80028CADAC6E72A4629F03CF889
:109E50000028D9DB019AA3681344A360E3689B1A26
:109E6000E360002BBBD104F13803A360FFF726FDAC
:109E70000028DCD1B0E78028B1D1044BDA68002A91
:109E8000D5D11B7D002BD2D1A9E700BFB82E002071
:109E9000054B064A9A62064ADA62064A1A63064A7D
:109EA00058629A6100207047B82E0020699A02001B
:109EB0006D9702000D980200AD97020010B5084B97
:109EC00093F8B84034B900F0E3F830B1FFF7E0FFA1
:109ED000204610BD6FF07700FBE74FF0FF30F8E74A
:109EE000B82E00202DE9F341414D04466F6A4148E8
:109EF0004FF0FF324FF0FF3321F088FF95F8B86044
:109F0000002E6ED13C482C62E86115F08DFF15F0F3
:109F10007BFD041E49DB00F081FA041E45DB7B78E3
:109F2000012B61D1FB79002B5ED0684685F8C830E3
:109F3000ADF802308DF804608DF8006015F0A8FDD2
:109F4000041E32DB802768468DF8007015F0A0FDF6
:109F5000041E2ADB2949304615F052FF041E24DB7B
:109F60002649384615F04CFF041E1EDB244CDFF852
:109F70009480444520D3002015F012FE041E14DB0B
:109F8000D5F8C430802043F00103C5F8C43015F083
:109F900007FE041E09DBD5F8C43043F48033C5F84E
:109FA000C430012385F8B8300024124821F0A8FFFE
:109FB000204602B0BDE8F081276A0026227FF3B276
:109FC0009A4201D82434D4E707EBC30257F8331080
:109FD000107915F015FF01360028EFD04FF0FF344F
:109FE000E3E76FF07704E0E76FF01504DDE700BF0B
:109FF000B82E0020FC0D0020E9980200B59D02005B
:10A000008D1000208D10002030B51F4B8BB005AA9D
:10A0100003F1100518685968144603C40833AB42AD
:10A020002246F7D11B7823701022002101A833F0BB
:10A030000DFB12220021154833F008FB102101A866
:10A0400029F0E5FA00281BDD0828B8BF08200938E8
:10A0500001AB0E491A18002012F8013F0AAC04EBBC
:10A06000131403F00F0328336B44013014F8144C1D
:10A0700013F8143C0C7008284B7001F10201EBD16D
:10A0800002480BB030BD00BF31080600C8580020A0
:10A090002DE9F04F704C87B04FF0000B00264FF0C9
:10A0A000011AB0463546B14623782BB96B4B0234C2
:10A0B0009C42F3D1684833E06378052B1BD8DFE876
:10A0C00003F09003C8901D3B402304A88DF810B006
:10A0D000ADF812308DF814B028F0C8FE40B1082356
:10A0E00004A8ADF8123028F0C1FE08B1ADF812B0E6
:10A0F000BDF81230E37123781C44D5E7E378002BD8
:10A10000F9D1A3787BB108F101085FFA88F8F2E78A
:10A110006B689C4209D02435514B9D42F8D30020F6
:10A1200007B0BDE8F08F4F4DF6E7AB68002BEAD0E3
:10A13000414620469847E6E7002DF0D000222B7FCD
:10A140009A42ECD2296AA07801EBC2010B799842BD
:10A1500001D00132F3E70127E07800F003008DF829
:10A160001400207994F805C040EA0C20ADF81200E4
:10A1700094F902000028FBB228DA07F110004FF032
:10A18000010C0CFA00F010EA0A0F26D143F080000F
:10A190008DF8100004A8CDE90213019228F066FEA4
:10A1A000DDE90121039BC0B99DF81020A27012F0D7
:10A1B000800F18BF10330A7118BFDBB24FF00102D5
:10A1C00014BF9A40BA404AEA020A94E70120B84014
:10A1D00010EA0A0F01D11846DAE70137102FBBD178
:10A1E000B7E7032E1DD1FFF70FFF074668B1FCF755
:10A1F00003F9102809D13846A31C07F1100250F8C2
:10A20000041B43F8041B9042F9D123786FF002013C
:10A21000E218091B04EB5303D14213D50136F6B201
:10A2200069E7002EF1D1B9F1000F3FF478AFA4EB4C
:10A23000090389F80230C3F3072389F8033089F84A
:10A240000480EBE702F801BC13F8010902F8020DE3
:10A25000E2E7A1464FE700BF301000208D1000203C
:10A260008D1000208D10002010B5094B00211A46DA
:10A270001C78844205D15C681CB1482303FB012093
:10A2800010BD0131042903F14803F1D10020F7E7A3
:10A29000842F00202DE9F34150F8303C10F8346C45
:10A2A0001033044610D1036950F8282C990739D58A
:10A2B000EAB913F0040304D11A461946304624F0D3
:10A2C00081F9002344F8303C54F8303C10330BD073
:10A2D00054E9097554F81C8C32F0C0FA00284CD0AF
:10A2E0002C48214632F047FC02B0BDE8F08150F81E
:10A2F0002C1C01AB304624F065F910B16FF015034A
:10A30000E0E7019A54F82C3C134444F82C3C54F8F0
:10A31000283C9B1A44F8283C54F8243C134444F845
:10A32000243CD1E750F82C1C01AB304615F0DEFC84
:10A330000028E3D1019D54F82C3C2B4444F82C3CDC
:10A3400054F8283C5B1B44F8283C54F8243C2B442C
:10A3500044F8243C002DB4D0304615F06BFDB5FB1D
:10A36000F0F303FB1055002DABD154F8283C002B23
:10A37000A7D0304615F002FDA6E744F8200CA4F162
:10A38000180021F02DFE002DAED042463946304651
:10A39000A847A9E7782D002010B54FF02003EFF370
:10A3A000118483F31288BFF36F8FFFF75DFF50B105
:10A3B0004368103307D16FF08B03436000F1340121
:10A3C000034832F0D8FB84F31188BFF36F8F10BDC0
:10A3D000782D002070B50F4C04254FF02003EFF3CB
:10A3E000118683F31288BFF36F8F6368103307D130
:10A3F0006FF08B030848636004F1340132F0BBFB5B
:10A4000086F31188BFF36F8F013D04F14804E4D156
:10A4100070BD00BF842F0020782D002070B50A4C3D
:10A420000A4E00253146204632F078FB0122A4F185
:10A4300018001146013532F0EEFA042D04F14804FB
:10A44000F0D1002070BD00BFB82F002095A20200FF
:10A450001FB507240294044C0194BDF818400094E1
:10A4600027F006FD04B010BD9E0C002010B5084C6E
:10A4700086B024788DF81740012402940DF117045A
:10A480000194BDF82040009427F0F2FC06B010BD06
:10A49000A50C002000B589B064288DF8070019D8F4
:10A4A0000E4B18221870002102A833F0CFF80C4B85
:10A4B00003930DF10703049302A901230020ADF8D3
:10A4C000143005F0DDFA10F1800F08BF002009B04C
:10A4D0005DF804FB6FF01500F9E700BFA50C002044
:10A4E00090DF05002DE9F0410F4B1C6805460E4634
:10A4F0001746ACB14FF0FF324FF0FF330B4821F05D
:10A5000085FC63683246D3F8088029463B462046DE
:10A51000C0470446054821F0F3FC2046BDE8F08121
:10A520006FF00104F9E700BFA4300020E80D00201F
:10A5300000230360044B5A6812B9C3E90000704756
:10A5400010605860704700BFA8300020014B1860B1
:10A55000704700BFA430002030B585B00023054609
:10A56000CDE9023301904FF0FF330C484FF0FF323A
:10A5700021F04CFC0A4B1C684CB9284600F0CEF880
:10A580000446064821F0BCFC204605B030BD636897
:10A5900020461B6801A998472468EDE7E80D0020D4
:10A5A000A83000201FB5CDE9010103924FF0FF3321
:10A5B0000A484FF0FF3221F029FC094B1C682CB9E6
:10A5C000064821F09DFC204604B010BD636820467B
:10A5D0001B6801A998472468F1E700BFE80D002037
:10A5E000A8300020024B0022C3E90022704700BFC0
:10A5F000A8300020024B0022C3E90022FFF7F2BF7F
:10A60000B030002070B51B4C1B4E0546B44212D32F
:10A610001A4E1B484FF0FF324FF0FF3321F0F6FB8C
:10A6200034687CB1286854F8141C143CFBF7D2FE43
:10A63000C8B16469F5E721682868FBF7CBFEA8B1CB
:10A640001434E3E700226A61726805F114033AB931
:10A65000C6E9003300240A4821F052FC204670BDB0
:10A6600013607360F6E76FF01004F4E76FF0100406
:10A67000F4E700BFE0DA050058DB0500B030002049
:10A68000E80D00202DE9F74307460C4609B10023E9
:10A690000B601F4DDFF8809000264D450FD31D4BFA
:10A6A0001D6885B355F8148C01AA41463846143DFF
:10A6B00023F0C1FF10B3D6B914BB2E461EE0D5F867
:10A6C000008001AA4146384623F0B5FF50B116B9C3
:10A6D00054B92E4606E031680022404623F0ABFF15
:10A6E0000028F5D11435D8E7019B2360F1E73168E4
:10A6F0000022404623F09FFF0028DDD16D69D0E79E
:10A70000019B2360D9E7304603B0BDE8F08300BF6A
:10A71000E0DA0500B030002058DB0500F8B5184C31
:10A72000184F06460025BC4208D3174B1C682CB3B3
:10A73000143CB6B9E368E3B96469F8E72EB9E36895
:10A740005BB9284614340546EDE7206800223146FF
:10A7500023F071FF0028F2D1F3E79847002DF0D1E4
:10A76000F0E720680022314623F065FF0028E1D1A0
:10A77000E2E79847002D08BF0546DDE72846F8BD0B
:10A78000E0DA050058DB0500B030002038B50C4D8C
:10A790000C484FF0FF334FF0FF3221F037FB2B789E
:10A7A0003BB9FFF727FF00F06DF8044610B901230D
:10A7B0002B700024034821F0A3FB204638BD00BFC6
:10A7C000DA580020E80D00202DE9F047048FDFF86B
:10A7D000B0A0013498B080468946A4B200F10806C2
:10A7E000651EADB2B5F5004F47D04A2305AA2946EC
:10A7F000304623F0AFFE04F57F543F34A4B2074641
:10A80000214601230DF10B02304623F0A3FE002F59
:10A81000014603DC002803DC2C46E1E7002816DCB7
:10A82000B8F83830AB4209D142466B1E22F8383FA7
:10A830004FF4004102233046FEF768FE29463046B9
:10A8400023F024FE2146304623F020FEE4E707F102
:10A8500060030DEB0307002307F84C3C5246CDF88C
:10A86000009003AB05A80396ADF8104023F019FF44
:10A870000028D1D018B0BDE8F0870020FAE700BF6B
:10A8800011E704007FB50123694602200193FEF71A
:10A8900015FF044660BB02AA01A90220FEF736FF9D
:10A8A000044610B110F10C0F22D10399B1F5803F8D
:10A8B00023D2009A002394681846084484421AD38D
:10A8C0000133082BF9D10E4DA982EB825368AB609E
:10A8D0002846D368EB6323F0B5FF044640B9094E20
:10A8E0006E602846FFF724FE28466E60FFF72EFEB6
:10A8F000204604B070BD9BB2E5E76FF02004F7E797
:10A90000B830002020040020014B1868704700BFB9
:10A9100034040020F0B5082289B024F06BF9CB6A2A
:10A9200003930B6B04934B6B05938B6B0693CB6B71
:10A93000079313466A460C46064600271146104602
:10A94000CDE90177009724F064F83146054630469A
:10A9500024F05FF8216B0391616B0491A16B059169
:10A96000E16B0544CDE906171046114624F051F875
:10A9700031460544304624F04CF80544206A0090E6
:10A98000606A0190A06A0290A06B0690E06B07904D
:10A990003046CDE90477039724F03BF80544606A1C
:10A9A0000090A06A0190E06A0290A06BD4F834C0D5
:10A9B0000490E06BCDF80CC0CDE9050C206A07903F
:10A9C000304624F026F80544E06A0090206B0190A0
:10A9D000606B0290206A0690A06A07903046CDE92D
:10A9E0000477039724F039F9236B0093636B019389
:10A9F000A36B0293E36B0393636A0693E36A079383
:10AA00002D1A0823304624F028F9636B0093A36BBA
:10AA10000193E36B0293236A0393636A0493A36A2B
:10AA2000CDE90537236B07932D1A0823304624F010
:10AA300014F9A36B0093E36BCDE90137636A0393C9
:10AA4000A36A0493E36A0593636B07932D1A0823A3
:10AA5000304624F002F92D1A10D40D4C35B90822D5
:10AA60003146204624F0D2F801280FD00823224690
:10AA70003146304624F0F1F82D1AEFE7044A082356
:10AA80003146304623F0C5FF2D18F8D409B0F0BD8B
:10AA9000E4DF05000449431E0F3013F8012F8A5CE0
:10AAA0001A708342F9D170474E080600F0B5264E61
:10AAB00007460C460FCE8DB001AD0FC50FCE0FC5AA
:10AAC00096E8070085E807003846002F38D0002CAC
:10AAD00038D0381F2146024610344B780D781B04BD
:10AAE00043EA0563CD782B438D78043143EA05238F
:10AAF0008C4242F8043FF0D1144C04218A070369C8
:10AB000016D1C3F30742A55C1A0EA25C42EA0562A5
:10AB1000C3F30725DBB2655DE35C42EA054242EA26
:10AB2000032221F0030330336B4453F82C3C534091
:10AB300050F8042F013153402C290361DED101204C
:10AB40000DB0F0BD2046FBE774DB05004E080600A3
:10AB500030BFFFF7FDBF00BF114B124A2DE9F04196
:10AB6000D518DFF84C80013DB5FBF3F55D430E4B86
:10AB700008EB0304013CB4FBF3F403FB04540E1B89
:10AB800007460A49304632F039FD70194246002125
:10AB9000083E32F05BFD7E6704F10800BDE8F081FD
:10ABA00001000000000000000400000058DB050068
:10ABB00008000000044B99689869884203D0034953
:10ABC0004FF080520A607047E457002004ED00E027
:10ABD000134B9A6A12F0007F9A6A14BF1E201D2040
:10ABE00012F0807F9A6A18BF1F2012F4002F9A6A11
:10ABF00018BF212012F4802F9A6A18BF222012F465
:10AC0000003F9A6A18BF232012F4803F9A6A6FEAC5
:10AC100002426FEA12429A6218BF2420704700BFB6
:10AC200000ED00E010B5194B0246986A9C6A10F4DA
:10AC3000805F14BF1720162014F4006F9C6A18BFA1
:10AC40001820A40509D5986B986A000404D51AB198
:10AC50009A6A22F400429A6219200C4B9A6A12F402
:10AC6000806F9A6A18BF1A20D2050CD49B6A13F41D
:10AC7000005F18BF1C20054A936A43F47F43936228
:10AC800000230B7010BD1B20F5E700BF00ED00E0B6
:10AC900010B51C4B0246986A9C6A10F0100F14BF46
:10ACA0001120102014F0080F9C6A18BF1220A4076E
:10ACB00009D5586B986A000604D51AB19A6A22F031
:10ACC00080029A6213200F4B9A6A12F0010F9A6A5F
:10ACD00018BF142012F0200F9A6A18BF1520D4064E
:10ACE00058BF9B6A074B9A6A920642BF5A6A22F47F
:10ACF00000525A629A6A42F0FF029A6200230B7075
:10AD000010BD00BF00ED00E070B5444B5B689CB027
:10AD10000646C3F30803002585F31188BFF36F8F40
:10AD200002F07F40B0F17F4F11D102F00C000828F3
:10AD30000DD010074CBF0E4601250022033B8DF8B5
:10AD40000720032B05D8DFE803F01E5C60592E4670
:10AD5000F3E700249DF807309BB96822314602A82A
:10AD600032F04CFC099B002D53D0C3F3080222B9EA
:10AD70006FEA53236FEA4323099302A9204624F084
:10AD800093FE1CB070BD254BDA6A9107E1D4DA6AF4
:10AD9000002ADEDBDA6A5200DBD55A69B16942F477
:10ADA00080725A61BFF34F8FBFF36F8F5A6931F8CA
:10ADB000021C22F480725A61BFF34F8FBFF36F8F72
:10ADC0004DF60272914209D09A6AD2B242B10DF1A7
:10ADD00007010120FFF75CFF0446BBE73468B9E7D1
:10ADE0009A6A12F47F4F05D00DF107010120FFF799
:10ADF00019FFF1E79B6AB3F5803FAAD3FFF7E8FE9E
:10AE0000EAE70DF107010020E4E70DF1070100205A
:10AE1000EDE723F4FF7323F00103ADE700ED00E05D
:10AE2000024A536943F010035361704700ED00E09C
:10AE3000EFF30880EFF3098101B57246FFF764FF75
:10AE400001BD00BF044800232021C2180133302B6C
:10AE500082F80013F9D1704700E100E0FEF7C2F973
:10AE6000202080F3118808484FF40061401880F3D7
:10AE70000988EFF314800221084380F31488BFF39C
:10AE80006F8F00F0D5F8000058770020084B9B68C2
:10AE900083420BD1EFF3058343B1064B5A6842F06E
:10AEA00080525A605A6A22F400425A6221F038BD38
:10AEB000E457002000ED00E0094A0A499368096858
:10AEC000D967094998674B6843F080534B6000236A
:10AED00083F31188BFF36F8F9368D86F704700BFFB
:10AEE000E45700201404060000ED00E021498A68C0
:10AEF00082F8C1E04FF030001044EFF3098C80E895
:10AF0000F01F1EF0100F03D102F1800080EC108AB8
:10AF1000202080F31288BFF36F8F174F4FF0006629
:10AF20008A698A603E604FF0740414192068134CDB
:10AF3000206092F9C1E0906F0023936780F311883D
:10AF40001EF0100F03D00023E1EE103A03E002F1EF
:10AF5000800090EC108AEFF3148323F0040383F352
:10AF60001488BFF36F8F02F1300090E8F01F8CF36C
:10AF700009887047E457002004ED00E0F830002015
:10AF80001EF0040F0CBFEFF30880EFF30980816916
:10AF900011F8021C0229FFD001B524F087FD01BD84
:10AFA00040B2002807DB044A4109012300F01F00DA
:10AFB000834042F82130704700E100E040B20028B1
:10AFC0000CDB4309064900F01F00203301228240B8
:10AFD00041F82320BFF34F8FBFF36F8F704700BF3F
:10AFE00000E100E0054B420900F01F0053F8222069
:10AFF000012303FA00F01040704700BF00E100E0B9
:10B0000040B20028A8BF00F1604001F10101B8BFC3
:10B01000064B4FEA4111ACBF00F5614000F00F0054
:10B02000C9B2B4BF195480F80013704714ED00E0A2
:10B03000144A08B5144B22F07F029A60BFF34F8F79
:10B04000BFF36F8FD3F8882022F47002C3F88820F2
:10B05000D3F8882042F4A002C3F888204FF0404281
:10B06000C3F83422BFF34F8FBFF36F8F0023E1EE9D
:10B07000103A20F057FC21F0C9FCFFF7E3FE20F066
:10B080009FFC00BF0060020000ED00E042F8203CA1
:10B09000009B42F81C3C019B42F8183C0A49029B69
:10B0A00042F8143C4FF0807342F8043C21F0010157
:10B0B000002342F8081C203A83674FF47D43026561
:10B0C000C0F8C030704700BF658F0200114B9B680D
:10B0D00083421BD1EFF30580C0B94FF02002EFF39C
:10B0E000118182F31288BFF36F8F1A7B22F0020264
:10B0F0001A73EFF3148323F0040383F31488BFF36C
:10B100006F8F81F31188BFF36F8F70476FF0150059
:10B11000704700BFE45700200023E1EE103AEFF340
:10B12000148323F0040383F31488BFF36F8FBFF3FA
:10B130006F8F094B9860094B406F1860104681F380
:10B140000988002163B681F31188BFF36F8F002255
:10B150000023FDF707FF00BFE4570020F830002070
:10B16000014910220A60704710ED00E072B64040BD
:10B1700080F31188BFF36F8FBFF34F8F30BF62B67C
:10B18000BFF36F8F704700BF72B6494081F31188DB
:10B19000BFF34F8F20BF80F3118862B6704700BFA6
:10B1A00001B5EFF30580A0F110004FEAC00004499B
:10B1B000014409C99847BDE8014002490847000019
:10B1C00014D90500B5AB0200024B034A0348012124
:10B1D00000F030B8000004200000002090E00500DE
:10B1E000084AC2F898000B6823F01F03034343F09A
:10B1F0001003C2F89C308B6843F00103C2F8A03002
:10B20000704700BF00ED00E0044B0522C3F8942016
:10B21000BFF34F8FBFF36F8F704700BF00ED00E0AB
:10B22000BFF35F8F024B0022C3F89420704700BF2A
:10B2300000ED00E010B5034C0123227824F055FC0A
:10B24000207010BDDB580020F0B5454D2C68082C4F
:10B2500085B000F28280FFF7E3FF00200C268442D5
:10B260000DD1404D404F2C706846FEF721FA002466
:10B270000646A6420AD1FFF7C7FF00201CE0696816
:10B2800006FB0011FFF7ACFF0130E8E7009800EB88
:10B2900004114FEA041CCB683B40B3F5000F4AD0C1
:10B2A0000CD8B3F5001F30D0B3F5800F38D0B3F50C
:10B2B000801F12D06FF0150005B0F0BDB3F1807F94
:10B2C00042D0B3F1007FF5D150F80C3088684A685D
:10B2D00024F0FBFB40F4802009E050F80C30886833
:10B2E0004A6824F0F2FB40F0885040F4302003908C
:10B2F00028780728CDE90123DCD801A9FFF770FFE2
:10B300002B7801332B700134B3E750F80C30886888
:10B310004A6824F0DAFB40F0885040F40020E6E769
:10B3200050F80C3088684A6824F0CFFB40F0007079
:10B3300040F40030DBE750F80C3088684A6824F0AD
:10B34000C4FB40F08270D2E750F80C3088684A683D
:10B3500024F0BBFB40F08870C9E74FF0FF30ABE74B
:10B360009CE00500DB5800200000F0FF08B5044811
:10B3700022F085FA404080F311884FF0020002DF8E
:10B380004E09060008B50649064821F00701C1F13B
:10B39000005202F5802222F0A1FC002008BD00BF6F
:10B3A000BB950020FC3000200E4A0123C2F8403536
:10B3B0004FF080424FF08051C2F87835D1F830011B
:10B3C000082808D1D1F83411052904D80648415C71
:10B3D00009B1C2F838364FF080430122C3F8802506
:10B3E0000020704700E001407B0906004FF08043D9
:10B3F000C0B2C3F81C05BFF34F8F0549054BCA689F
:10B4000002F4E0621343CB60BFF34F8F00BFFDE750
:10B4100000ED00E00400FA0520B1034B800143F089
:10B4200001031847704700BF00DC050008B5044859
:10B4300031F054F900280CBF6FF01200002008BD55
:10B44000FCD70500F8B5594EBFF35B8F3468BFF3E6
:10B450005B8F14F0010450D0554F564C564D574851
:10B460003A46214623F02EFAE0B320222946204610
:10B4700032F086F80028F2D000274FF0FF324FF06C
:10B48000FF33012000F01EFB00F10C0502210446F1
:10B49000284627F091FC3E2303704223437001218C
:10B4A000284627F089FC082303704121284627F00D
:10B4B00083FC054600F8017BB7B14022002132F041
:10B4C000C5F8BFF35B8F56E8003F23F0010346E861
:10B4D0000032002AF7D1BFF35B8F2046BDE8F84069
:10B4E00000F038BF1F27C8E7344924F098FB20310B
:10B4F00005F1210024F093FBE3E7BFF35B8F336892
:10B50000BFF35B8F9B0750D529492C4824F097F84F
:10B51000002811DBBFF35B8F264933682648BFF351
:10B520005B8F13F0040F01F12002214B18BF01467D
:10B53000104623F014FA04464FF0FF324FF0FF3369
:10B54000012000F0BFFA00F10C0702210546384641
:10B5500027F032FC3E23037022234370012138463A
:10B5600027F02AFC092303702121384627F024FC08
:10B57000034601309CB91F221A70FF21202232F0AD
:10B5800065F8BFF35B8F56E8003F23F0020346E8FF
:10B590000032002AF7D1BFF35B8F28469EE70022D6
:10B5A00006491A7024F03BFBEBE7F8BD0831002098
:10B5B000BCE00500DC5800209B090600FC58002078
:10B5C00070B5214CBFF35B8F2368BFF35B8FDA0745
:10B5D00006460D4601D50C2070BD012931D8BFF3B8
:10B5E0005B8F54E8003F43F0020244E80021002949
:10B5F000F7D1BFF35B8F9B07EDD41448314624F09D
:10B600000EFB134806F1200124F009FBBFF35B8F0A
:10B6100075B154E8003F43F0040344E80032002AC7
:10B62000F7D1BFF35B8F0B4800F00AFA0020D3E795
:10B6300054E8003F23F0040344E80032002AF0D02D
:10B64000F6E71220C8E700BF08310020FC580020B0
:10B650001C5900203804002070B5067E044676B9D7
:10B66000C3681D8842F22602954245D00FD842F2A7
:10B67000010295424FD042F225039D4213D02A4B3E
:10B68000D3F85C3120465B69BDE87040184742F250
:10B690005E039D42F3D103210C3027F0ACFBE06840
:10B6A00090F840102EE003210C3027F0A4FB204638
:10B6B00013F00AFEBFF35B8F1C4B1A68BFF35B8F5E
:10B6C000920707D50C26314642F2250024F083FA72
:10B6D000002070BDBFF35B8F53E8002F42F00101E3
:10B6E00043E800100028F7D1BFF35B8FD307E9D4FC
:10B6F0000F4800F0A5F9E6E703210C3027F07BFBAB
:10B70000E0683146FFF75CFF0646204613F0DCFD9B
:10B7100031462846DAE7DA7802F07F02DA701A79E1
:10B7200022F001021A71AAE700000020083100206F
:10B73000380400202DE9F3411B4DBFF35B8F984681
:10B740002B68BFF35B8F1746DA0704462AD520B96A
:10B750006FF0010002B0BDE8F08101A922F08FFF77
:10B7600012490246204631F01BFF0028F0D1BFF3FA
:10B770005B8F2B68BFF35B8FC3F3C0061B0711D42D
:10B78000A5F1D404072221464046B847062895BFB4
:10B7900045F8D46C0723C4F80360B0FBF3F094BF02
:10B7A000E671E0710020D5E7D40000208007060094
:10B7B0002DE9F04188B09C79DDF838805D791E79FB
:10B7C000DF7893F802C093F801E01B78B8F1000F1E
:10B7D0000ED0CDE90638CDE904CE1346CDE9026797
:10B7E000CDE90045084A21F0B5FB08B0BDE8F0817D
:10B7F000CDE905E3CDE9037C1346CDE90156034AC3
:10B80000009421F0A7FBF0E7BB090600DF09060062
:10B8100070B504468CB01E461546A2B129B10A4641
:10B8200002A8042121F0B0FF02A900912B46224674
:10B83000242103A8FFF7BCFF109A314603A8FEF7A6
:10B8400051FE0CB070BD0346044A242103A821F028
:10B8500081FB0028F0DA6FF01500F2E7000A06001D
:10B8600007B5064B0648DA79C2EBC2020092002205
:10B870001146FFF7CDFF03B05DF804FB0000002088
:10B880008007060030B504468DB0154692B129B147
:10B890000A4602A8042121F077FF02A900912B4655
:10B8A0002246242103A8FFF783FF03A822F0BFFE4E
:10B8B0000DB030BD0346054A242103A821F04AFB00
:10B8C0000028F2DA6FF01500F2E700BF000A060068
:10B8D00007B5009313460A4601460348FFF798FF51
:10B8E00003B05DF804FB00BFCF0B06000A4601461B
:10B8F0000148FFF7C7BF00BFCF0B060007B5009395
:10B9000013460A4601460348FFF782FF03B05DF87D
:10B9100004FB00BFC90B060007B5009313460A4697
:10B9200001460348FFF774FF03B05DF804FB00BF56
:10B93000BA0B060007B500220346009103481146E2
:10B94000FFF766FF03B05DF804FB00BFC10B060004
:10B9500008B5024820F046FC002008BD480400203D
:10B9600070B51A4CBFF35B8F2368BFF35B8F13F086
:10B97000010F25461DD014F8CD3CA4F1D406D3B157
:10B98000BFF35B8F2368BFF35B8F5A0701D400F0CE
:10B9900077FDBFF35B8F55E8003F23F4803245E825
:10B9A00000210029F7D1BFF35B8FDB0301D5FFF73F
:10B9B000CFFF002009E001F013F830B9F379002B34
:10B9C000DED101F051F80028DAD070BDD40000209B
:10B9D00007B5009313460A4601460348FFF718FFD0
:10B9E00003B05DF804FB00BF0E0C06000A460146DA
:10B9F0000148FFF747BF00BF0E0C060030B50A4DE7
:10BA00000A4B85B0002428460293039431F0C4F811
:10BA100002AB0093284606490A234FF4A36220F0A4
:10BA2000E7FB204605B030BD90120020060A060054
:10BA3000406000200146014820F012BC9012002016
:10BA40000146014831F097B8901200200378012B8D
:10BA500030B513D0022B27D07BB9194B0A4603F11E
:10BA6000100453F8045B42F8045BA342F9D11B783D
:10BA7000137043884B731B0A8B7330BD104B0A46FF
:10BA800003F1100453F8045B42F8045BA342F9D1BC
:10BA90001B78137043684B73C3F307221B0CCB73E3
:10BAA0001B0A8A730B74E8E700F1100350F8042BAB
:10BAB00041F8042B9842F9D103780B70DDE700BF01
:10BAC0000F0A060038B50546054827F036F9044642
:10BAD00020B100210C3027F06BF92576204638BDC7
