:020000022000DC
:10600000B8C3002079E10200137705004DE10200DA
:106010004DE102004DE102004DE1020000000000F0
:106020000000000000000000000000009DE20200EF
:106030004DE102000000000009E202004DE1020013
:10604000BDE4020009300400BDE40200BDE402002A
:10605000BDE40200BDE40200BDE40200BDE40200B4
:10606000BDE40200BDE40200BDE40200BDE40200A4
:10607000BDE40200BDE40200BDE40200BDE4020094
:10608000BDE40200BDE40200BDE40200BDE4020084
:10609000BDE40200BDE40200BDE40200BDE4020074
:1060A000BDE40200BDE40200BDE40200BDE4020064
:1060B000BDE40200BDE40200BDE40200BDE4020054
:1060C000BDE40200BDE40200BDE40200BDE4020044
:1060D000BDE40200BDE40200BDE40200BDE4020034
:1060E000BDE40200BDE40200BDE40200BDE4020024
:1060F000BDE40200BDE40200BDE40200BDE4020014
:1061000053B94AB9002908BF00281CBF4FF0FF311E
:106110004FF0FF3000F00CB8ADF1080C6DE904CE83
:1061200000F008F8DDF804E0DDE9022304B0704770
:10613000704700BF2DE9F04786468C460846089E0A
:10614000154674461946002B40F0C2808542B2FACB
:1061500082F245D94AB1C2F1200300FA02FC2EFABC
:1061600003F3954043EA0C0C94404FEA154EA8B255
:10617000BCFBFEF8230C0EFB18CC08FB00F943EA2D
:106180000C43994528D9EB1808F1FF3704D29945FB
:1061900002D9A8F102072B44A3EB0903A4B2B3FB75
:1061A000FEFC0EFB1C330CFB00F044EA0344A0424F
:1061B00014D92C190CF1FF3304D2A04202D9ACF14E
:1061C00002032C44241A43EA07401EB1D4400023A2
:1061D00034607360BDE8F0874746DDE76346F1E76A
:1061E00092BB431B01214FEA154EAFB2B3FBFEFC3D
:1061F000200C0EFB1C330CFB07F840EA03439845C8
:1062000062D9EB180CF1FF3004D2984502D9ACF1F9
:1062100002002B44A3EB0803A4B2B3FBFEFC0EFB6D
:106220001C330CFB07F744EA0344A7424ED92C1950
:106230000CF1FF3304D2A74202D9ACF102032C4483
:10624000E41B43EA0040C0E7C2F1200320FA03F157
:10625000954090402EFA03F303434FEA154EAFB238
:10626000B1FBFEFC0EFB1C10190C0CFB07F841EAFD
:106270000041884504FA02F422D969180CF1FF3074
:1062800004D2884502D9ACF102002944A1EB0801EF
:106290009BB2B1FBFEFC0EFB1C110CFB07F743EAA3
:1062A00001439F420ED9EB180CF1FF3104D29F42FB
:1062B00002D9ACF102012B44DB1B41EA004192E719
:1062C0006046E3E76146F7E76046A3E76346B7E762
:1062D000834206D916B9002108467BE7C6E900E0EB
:1062E000F9E7B3FA83F78FB9834201D3724508D82F
:1062F000BEEB020460EB030301209C461EB90021A3
:1063000068E73846FAE7C6E9004CF8E7C7F1200C21
:10631000BB4022FA0CF41C432EFA0CF120FA0CF3C9
:10632000B84001434FEA14490EFA07F5B3FBF9F8F8
:106330001FFA84FE09FB18300B0C08FB0EFA43EA27
:1063400000439A4502FA07F240D9E31808F1FF30FA
:1063500004D29A4502D9A8F102002344A3EB0A0310
:1063600089B2B3FBF9F809FB183308FB0EFE41EACA
:1063700003418E452CD9611808F1FF3304D28E45B4
:1063800002D9A8F10203214443EA0040A0FB02988D
:10639000A1EB0E014145CE46434602D306D14D4501
:1063A00004D2B9EB020E68EB04030138002EA6D02C
:1063B000B5EB0E0261EB030101FA0CFC22FA07F3C4
:1063C0004CEA0303F940C6E9003198E74046C5E7C7
:1063D0004346D9E710F8012B11F8013B012A28BFE9
:1063E0009A42F7D0D01A7047034611F8012B03F8F0
:1063F000012B002AF9D17047034613F8012B002A1C
:10640000FBD1181A01387047F7B5404DD5F85C310B
:10641000996811F0010124D101AA40F6034009F066
:106420004FF8044600286DD1019CE3681B78ABB996
:106430000AF0E8FABFF35B8FD5F8D430BFF35B8F77
:1064400005F1D40203F00903BFF35B8F52E8001F8C
:1064500042E800300028F9D1BFF35B8F204620F0DE
:106460008DF801AA002141F2030009F029F8044641
:10647000002847D1019B264EDA68D2F80100D2F8F5
:10648000051003C6184620F079F8214601AA41F20A
:10649000010009F015F80446A0BB0198C3685A78BA
:1064A00085F870205A88A5F872201A7985F871202D
:1064B000B3F80720A5F87420B3F80530A5F87630B6
:1064C00020F05CF8214601AA41F2020008F0F8FF32
:1064D0000446B8B9019FFA68531C413218685968DC
:1064E000344603C4083393422646F7D1094831F0B5
:1064F000EDF9384620F042F895F87C305B060BD475
:106500006FF01204204603B0F0BD00BF1000002061
:10651000880000209000002001AA002142F2030020
:1065200008F0CEFF04460028ECD1019BB64EDA6895
:10653000D2F80100D2F8051003C6184620F01EF864
:10654000214601AA42F2020008F0BAFF04460028E0
:10655000D8D1019CE368B3F8012091B249B1D97850
:1065600039B1A5F80421DA78114606F128003FF088
:10657000C6F8204620F002F895F87C6016F0200658
:1065800018D1022140F66D4008F03EFF0446002875
:1065900000F0CC8002210C3035F062FA0123037048
:1065A00046702146324640F66D4008F089FF0446A9
:1065B0000028A7D195F89C301F0712D501AA002109
:1065C00042F21C0008F07CFF044600289AD1019892
:1065D000C368D3F80120D3F80530C5E938231FF08C
:1065E000CDFF95F8D8309E0624D50DF102016846FE
:1065F00031F08DFC0446002884D1042142F22400AD
:1066000008F002FF0646002800F0908004210C30BC
:1066100035F026FABDF800300380BDF80230438023
:106620002246314642F2240008F04AFF0446002880
:106630007FF468AF95F8D8305C0610D501AA002128
:1066400042F22A0008F03CFF044600287FF45AAFCB
:106650000198C3685B7885F820311FF08FFF08210F
:1066600042F2010008F0D0FE044600285ED0082166
:106670000C3035F0F5F995F8D81011F0400F0246BE
:1066800040F2022308BF032388074CBF43F02C00CD
:1066900043F00C0095F8D9308F0648BF40F0400019
:1066A00013F0090F95F8A23018BF40F4006003F012
:1066B0000603CE0748BF40F01000062B08BF40F489
:1066C000C070002131F094FA2146002242F201000C
:1066D00008F0F6FE044600287FF414AF95F87C30ED
:1066E000B5F80411980624D4C9B901AA41F20500ED
:1066F00008F0E6FE044600287FF404AFB5F8043144
:10670000019C4BB9E368B3F80120A5F804219A88ED
:106710003E4811463EF0F3FF20461FF02FFF0821B0
:1067200040F6014008F070FE044638B96FF0680486
:10673000E8E60029F3D16FF00404E3E608210C3009
:1067400035F08EF995F8D830D907024653BF4FF08F
:1067500000512BA1D1E900012D4831F049FA214621
:10676000002240F6014008F0ABFE044600287FF40A
:10677000C9AE014601AA4FF6014008F0A1FE044649
:1067800020BB01981FF0FAFE214601AA4FF60240F5
:1067900008F096FE0446C8B90198C368B3F8013002
:1067A000A5F8C1301FF0EAFE95F8C1305B070DD5A2
:1067B00001AA21464FF6034008F082FE30B9019845
:1067C000C3685B7885F8C0301FF0D8FE31F018FE42
:1067D000044600287FF496AE0BF040FB04460028E8
:1067E0007FF490AEEB79002B3FF48CAE0821094882
:1067F00031F064F909F000FA84E600BFAFF30080DD
:106800009088000200800020E8000020180100208D
:1068100010880002E40000202DE9F843D0E90C358F
:10682000D0F82C805C193034A0450F46164619D894
:106830001D4DA3FB05011AA3D3E90023FFF760FC5C
:106840000346A4EB0800A0FB050123F07F4414A33A
:10685000D3E90023FFF754FC20F07F403C60306018
:10686000BDE8F883DFF840900DA3D3E90023A8FB2F
:106870000901FFF745FC044605F1300008A3D3E900
:106880000023A0FB0901FFF73BFC24F07F4420F02C
:106890007F403C603060BDE8F88300BFAFF300800C
:1068A0008D49FD1A0700000000CA9A3B0000000055
:1068B0009FED0D7B124B134A1348144910B483ED1E
:1068C000007B9FED0B7B82ED007B9FED0B7B104BE4
:1068D0004FF0FF34002281ED007B04601A605DF808
:1068E000044B12F049BB00BFFFFFFFFFFF1F00007A
:1068F00000000000000000001F0000000000000079
:106900007801002088330020B06B00207001002047
:10691000A86B002000000000002800F05F812DE936
:10692000F04FB54C94F86A2012F001058DB040F09C
:10693000A78194F82500FF2300F0030084F8263097
:106940001BF042FE94F86A00420727D494F82920ED
:1069500094F8353004EB820204EB8303D66AD3F853
:10696000388086B1A448314614F08AFA33785B0641
:1069700005D506210FF030FA002800F083819E48EB
:10698000414614F07DFA337813F00E0F40F0B780D3
:10699000236A93B10C200DB0BDE8F08F2A4604F1B4
:1069A0006B01C0F3C0001BF0ABFFFF2884F826008A
:1069B000CCD028461BF04EFEC8E711F007FC8146FC
:1069C000002800F0718111F00DFC8246002800F0D3
:1069D000688114F083FE0546002800F06781D0F836
:1069E00088004FF6FF732B8505F11C0B002800F083
:1069F0004F8105F1780105F17C020FF0F9F9B5F846
:106A000076307E4A23F4EF6323F0070343F4887360
:106A100043F00103A5F876301346D2F80120C5F8FB
:106A20009B21C5F8A12113F8012B9B88A5F89F3164
:106A3000A5F8A53195F89A3102F0010262F300033E
:106A400062F3410385F89A3195F8393003F03F033A
:106A500063F07F0385F8393095F88E3023F0070313
:106A600085F88E3095F83C3023F00703002785F831
:106A70003C304FF4C023C5F888312846C5E9127769
:106A8000C5F88870A5F88C706F86C5F82E7085F8EB
:106A90003B702F65A5F88E71A5F8847117F0ECFB9B
:106AA00085F85071C5F8549115F0D6F895F89431E1
:106AB00060F3020385F8943115F0D4F895F8943119
:106AC00060F3C50385F8943195F8803167F341038D
:106AD00085F880310121284615F024FD05F1D40008
:106AE00017F052F9C4E9189AC4F820B0C5E905773F
:106AF0002F70ED611DF036F8002840F0C58094F845
:106B000024300121C3F342030DF12B008DF82B300B
:106B10000FF00CFB0246002862D098F801103046B6
:106B200013F070FF31233649A360364BB4F8687018
:106B3000A0FB01010025C01841F107012CA3D3E9F6
:106B40000023C4E9055525706560E560FFF7D8FAB4
:106B5000206110F01FFE00F109083FB9357805F0FB
:106B60000F05A5F10105B5FA85F56D0994F8240026
:106B7000236965F3000010F0010584F824004BD070
:106B8000214A0992002010600225204A204F0493D8
:106B90000BAE019305920321CDE902000694434612
:106BA0000090089607972A460B9510F091FC314605
:106BB00011F0D2FBA0B9174905914AF2D8330093DE
:106BC000CDE90300CDE901000797089606944346F6
:106BD000012203210B9510F047FC43E013F05EBE49
:106BE000236A002B3FF4D6AE13F016FED2E600BFA8
:106BF0008D49FD1A07000000686C002002A60600FF
:106C000000CA9A3B8C49FD1A5C6C002081AA0300E3
:106C10002179030095A503002B4A2C48049303F225
:106C200047130694029591211360A7FB000301FB13
:106C30000731274B0793274B05934FF6FF730992B4
:106C4000022703930BAE1EA3D3E900230B970896EC
:106C5000FFF756FA4346CDE900503A46284603214D
:106C600010F036FC314611F077FB0028B8D194F8CB
:106C70006A3043F0010384F86A3014F023FB60B1FA
:106C8000002088E6122086E613F0C6FD032082E687
:106C900005F18000C5F88800ABE601201BF076FC0A
:106CA000EEE7484611F098FA072074E6504611F0D6
:106CB0009FFA484611F090FAF6E700BFAFF3008064
:106CC0008D49FD1A070000005C6C0020002AE78453
:106CD0002179030081AA030070B590F824308AB0AE
:106CE000C3F342030D46044601210DF1230016466D
:106CF0008DF823300FF01AFA71780246284613F007
:106D000081FE1F491F4AA0FB0131981841F107017C
:106D100019A3D3E90023FFF7F3F923699842054645
:106D200021D21B1A00220192174A0293174BA21A72
:106D3000A3FB02320221920900230A4409AE099101
:106D400013490591CDE903330321D2B2069600938E
:106D5000184610F01DFC314611F0FEFA38B92561D5
:106D600000200AB070BDFBD9C21A0023DBE70C205B
:106D70000AB070BDAFF300808D49FD1A0700000016
:106D800000CA9A3B8C49FD1A686C00208988888863
:106D9000217903000000000038B5194C9DF810E07F
:106DA00094F848C01CF0010523D163F3420C400164
:106DB00094F83230A1874FEACE0E0EF0180E00F094
:106DC000200040EA0E0023F0380303430D4884F806
:106DD00032309121A2FB000384F848C001FB02314C
:106DE00005A3D3E90023FFF78BF9C4E91000284677
:106DF00038BD0C25284638BD8D49FD1A0700000016
:106E000090330020002AE78410B504469DF808005E
:106E100022844FEA411CC000A17D00F018000CF054
:106E2000200C4CEA000C0C4821F038014CEA010C13
:106E3000A3FB0002912184F816C001FB032104A3E7
:106E4000D3E90023FFF75CF9606210BDAFF3008067
:106E50008D49FD1A07000000002AE78400000000A9
:106E60002DE9F047044600F1350190F8480094F808
:106E700032305B4DDFF88081C0F3400060F3861351
:106E80008CB084F8323010F0D7FC94F83220A38F05
:106E90005448E46102F07902002784F832209121FD
:106EA000A3FB0002C4E90577277001FB03214AA375
:106EB000D3E90023FFF724F9651B626C4A4B676036
:106EC000AD08A3FB053502F10903984298BF3A4685
:106ED000C5F3470522644FF031028CBF19460146C5
:106EE000A26005EB4502E760216148F822100646E2
:106EF00010F050FC236A00F109074FEA450A002B05
:106F00004AD00DF12C09AA4408EB8A030993CDF865
:106F100020900694A38F33484FF00008A3FB000293
:106F2000CDF80C80912101FB0321236904932F4BA1
:106F300007932F4B05934FF0020A27A3D3E90023B1
:106F4000CDF82CA0FFF7DCF8104619464FF47A7202
:106F50000023FFF7D5F80435EDB2CDE90160032138
:106F60003B462A46CDF80080404610F0B1FA49462B
:106F700011F0F2F960B994F8483043F0010384F855
:106F8000483013F053FF08B300200CB0BDE8F08781
:106F90000C200CB0BDE8F0870DF12C09CDE90A33C7
:106FA00021694B460AAA032001F096F90028AAD1CC
:106FB0000B99104808A3D3E90023A1FB0001FFF7B8
:106FC0009FF80A9B20F07F471F449CE750461BF028
:106FD000DDFAD9E7AFF300808D49FD1A0700000004
:106FE00090330020002AE784BD86F21A217903003D
:106FF000B5B0030000CA9A3BF86C00200000000006
:107000002DE9F04F05468BB08B46012002219A46B0
:1070100014461FF04BF800220221814601200EF099
:1070200037FF3B494FF4D47228460EF0C1FE461D8F
:10703000F6B2384B009532460121002010F0C0FA1C
:1070400010F0FD0F0CD0344A3449354840F62F0378
:107050002EF0C5FD404080F311884FF0030002DFA1
:10706000304BA4FB0348204627A3D3E90023414625
:10707000FFF746F82C4B20F07F47A7FB0331072290
:10708000E01A02FB071168EB01014FF47A7200234A
:10709000FFF736F8CDE90170CDF800B008950695F8
:1070A000296995F9394021480491214931EA24019F
:1070B00028BF014605911F4C07944FF6FE710391BE
:1070C000534632460121002010F0CEF910F0FD0F9A
:1070D0000CD0114A1149124840F644032EF07FFDAE
:1070E000404080F311884FF0030002DFB9F1000F38
:1070F00002D10BB0BDE8F08F0122022110460BB087
:10710000BDE8F04F0EF0C4BE8D49FD1A0700000027
:10711000E033002085B603004083060004840600A7
:10712000DC7D060000CA9A3B8D49FD1AFD1604005D
:10713000A51804002DB603002DE9F043C469228D83
:107140004FF6FF739A428DB000F0888005462046C6
:1071500017F08AFB95F82830012B00F00F81022BE5
:1071600000F00281002B00F0E18094F85071002FB4
:1071700040F0FD80E68DB4F83080002E71D1AA8CED
:1071800008F101060023CDE90A33B6B2002A70D017
:1071900094F93930002BC0F248810023A4F88A31D9
:1071A00095F82630D90740F1EF800023A4F88E31FE
:1071B0000DF127023146204617F09AF8743000F09E
:1071C0004681B4F888312BB1B34240F20D819B1B4C
:1071D000A4F88831B4F884312BB1B34240F2FB807B
:1071E0009B1BA4F88431258E17B9A84500F0EA80CE
:1071F0000135ADB294F8D13013F001065AD1DDE972
:107200000A130A46002B40F0ED80002900F0DC80D4
:107210001E461846228DE4690694CDE903570532CF
:10722000A74D0290CDE90016D2B2012100200595AC
:1072300010F0AEF910F0FD0F10D011F0B7F8844245
:107240000CD0A04AA049A14840F215532EF0C7FC2B
:10725000404080F311884FF0030002DF0DB0BDE81D
:10726000F083AA8C46440023CDE90A33B6B2002A43
:107270008ED195F82630DA0797D4B4F88A31002BEE
:1072800000F08280B34240F2FA809B1BA4F88A315E
:10729000B4F88E31002B8BD09E4280F0DE809B1B99
:1072A0009BB20022062BA4F88E31228600F2AC801D
:1072B00001277DE794F939206FF30003002A84F851
:1072C000D13077DB94F87600C0F3C00100F00700FE
:1072D0001CF0AEFAB4F86E20B4F86C30134403F22C
:1072E000D51303447A4A7B480721E3FB002110466B
:1072F00071A3D3E90023FEF703FFDDE90A1320F0B1
:107300007F4220692261904235BF161A801A002000
:1073100000260A46002B7FF47DAF56EA010C7FF46D
:1073200079AF002850D019461E4673E794F88E3086
:1073300003F01803182B7FF418AFA18DB4F8862141
:107340008B1D9A42C4BF931F5B1AB4F88211CCBF45
:107350009BB21346994200F08C80A4F88231A4F8C5
:107360008431A4F8882100E73D2784F8507139461C
:1073700020460DB0BDE8F04314F092BD0023A4F800
:107380008831A4F88431F0E6B4F88E31002B83D133
:10739000628DB4F88C3140F2E24101FB02F242F21C
:1073A000107101FB0323013BB3FBF2F39BB2A4F882
:1073B0008E316FE794F87700012100F007001CF090
:1073C00039FA87E73D4615E7002D4BD000261146D8
:1073D000304633461EE70023A4F88431204617F0D8
:1073E00027F800E7304615E710F048FF014600286F
:1073F0003BD00023A4F88831238DC3801B23037165
:10740000006810F005FFE5E694F939309342BFF6C5
:10741000CFAEB8F1000F7FF44BAFD4F878315A08F3
:10742000DB0743D4C4F87821C2E628460AAA0BA990
:1074300004F1D409FFF7F0F9484616F0E7FC18B359
:10744000484616F0E3FC18B300232386A5E69DF812
:107450002710204614F024FD00E70821204614F0F0
:107460001FFDFBE6002FB1D1F8E60123A4F8883117
:10747000B0E6B4F8881100297FF477AE6FE73E21BB
:10748000204614F00DFDE9E6FF2014F0C1FCD7E71B
:107490000246D4E91E010EF0C3FC0028D4D194F8B2
:1074A0003C30580744BFA38D238676E642F0004265
:1074B000C4F87821FCE600BF8D49FD1A07000000E2
:1074C000EDB503004083060050840600DC7D060015
:1074D0008C49FD1A00CA9A3B2DE9F04F87B0CDE9DF
:1074E0000432BDF8442003780292BDF84820BDF86C
:1074F0004080BDF84C50468EB0F82E90B0F814B1D4
:10750000019104460392002B00F0CB80013EB6B2FD
:10751000A368D4F80C71721B92B2002B009209DAA6
:10752000E168626823F0004391422CBF7F18BF18C6
:10753000A360FF1A009A638D13FB02F39BB2B3FBA7
:10754000F8F218FB02F080B283421FFA82FA80F050
:107550009780C01A40F2E2425D4902FB00F0A0FBB6
:10756000010159A3D3E90023FEF7CAFD20F07F40B3
:107570000744D94494F839304D44AD1B554440F28A
:10758000E246DB09E58506FB08F500F08E80226CFB
:107590000099A36CDFF838B102FB1133A3641CF02F
:1075A00033FB814694F87401C0F342001CF02EFBBB
:1075B000059B814406FB03F305FB09F9236509F5E7
:1075C0007429444B09F23F29A3FB09394FEA994337
:1075D00003FB0AF02364A5EB0309A36C6A080344C8
:1075E000963A934228BF1346C4E911230023C4F8F6
:1075F0007C31A0FB0B0134A3D3E90023FEF780FD0F
:10760000049B3F1A3448A0FB0330800A06FB00F0BD
:107610002DA3D3E90023A0FB0B01FEF771FD20F0A1
:107620007F46029BA385039BA4F88C312946204604
:10763000A4F82A8016F098FE284BA18D2B44881DB3
:10764000B3FBF5F39AB29042A4F8862102D2521A03
:10765000063A92B2019BA4F8822113B10023A4F848
:107660008E313B464A4631462046FFF7C9FC94F826
:10767000803143F0010384F8803107B0BDE8F08F1A
:1076800008FB1231124840F2E24389B203FB01F1D8
:10769000A1FB00010CA3D3E90023FEF731FD3F1A43
:1076A00067E74E445E44B6B232E7049B0848A3FB4A
:1076B000000105A3D3E90023FEF722FD20F07F4659
:1076C000A9460136ADE700BF8D49FD1A070000004D
:1076D00000CA9A3B83DE1B435917B7D17FC3C90148
:1076E0002DE9F04F04460B68077F1668D3F800A019
:1076F000638CD0F81E0095B015464A7CADF84C302E
:10770000FF2AC7F3801389460D9212908DF83F30FF
:1077100072D198461A4612AB93E803000DF1400B64
:107720001090ADF84410F8090AF1710127680A9128
:107730005B460C900B9714F09BFA0A99002843D1F2
:1077400096F89A310C9A0A9068F3410362F30003A9
:1077500086F89A311098BBF80430C6F8A101A6F853
:10776000A531DAF87130C6F89B318B88A6F89F31C5
:10777000E38D94F83010A9722B81D4F82A306B6015
:10778000D4F83A30AB6105F1180094F83E3003713B
:1077900005210EF0CBFC6B7F00F03F0060F305038A
:1077A0006B7794F83F30C3F30401A977A18EE98188
:1077B000012803F01F0389B206D91B3303F01F030E
:1077C0000B2B01D80A9A59BB0022CAF8142095F84D
:1077D00020300B9862F3000385F82030E56801261D
:1077E0002146267110F00AFD28682E71294610F0F6
:1077F0000FFD15B0BDE8F08F0DF1400B10460DF1F7
:107800003F015A461AF038FC9DF83F80277F08F167
:1078100002085FFA88F88DF83F8008F0010282E7DD
:10782000D9F800305A60E38E2B82EB8940F2E248AF
:1078300008FB03F71146638E0A93304616F0A8FD45
:1078400094F83F3096F874215B0963F3430286F89D
:1078500074211CF0D9F90C9096F87401C0F3420021
:107860001CF0D4F90C9B184407FB00F0BA4B00F550
:10787000742000F23F20A3FB00307B08800C963B75
:107880006862AB6294F8313008FB03F3AB63238F7B
:10789000A6F88C313946304616F066FDAF4BB04A3B
:1078A000C6F890213B44B3FBF7F39AB2A6F88621C1
:1078B000298A881D824204DDC1F57F41FA310A44DC
:1078C00092B2A6F882216B68C6F87831234613F885
:1078D0001C2FC2F34018DA0700F104814FF48073C3
:1078E000A3839AF826001BF021F904F12B0300284A
:1078F00000F0EE80626AC4F82B20228D9A800D9BE6
:10790000FF2B00F0E980BDF84C301298A4F8293024
:10791000C4F82500BBF80430A4F8233010989DF873
:107920003F30C4F81F00A377EB8963862B8AA386B8
:10793000B6F88C31E38696F87431C3F3420384F8C9
:107940003830304613F0D6FEA881E08021460B98EF
:10795000D9F8044010F052FCAB89E3801C23D4F822
:1079600000B02371B8F1000F40F0D18084F81C8082
:107970002146584610F04CFC95F85B00B5F8508055
:10798000B5F85240012100F007001BF053FF4444BA
:1079900004F2D514DFF8D4810444834671480721EA
:1079A000E4FB080131230024B360746068A3D3E9C9
:1079B0000023F460FEF7A4FB20F07F4030616D6A85
:1079C0000A9A7D1BD9F80C7040F2E24303FB027760
:1079D0000221224601200EF05BFA504613F00CFA09
:1079E00007F2B2470246A7EB0B07A7FB08011746B1
:1079F00057A3D3E90023FEF783FBCDF804A0D9F801
:107A000008305949009120F07F48BA1C3A3BD2B265
:107A10002046434401210FF015FE012800F082802A
:107A20009AF82430DB076AD4304613F063FE4F4BDC
:107A3000A5FB035A044646A3D3E900232846514632
:107A4000FEF75EFBD9F80830494A0792A3F13A09DC
:107A5000484B069620F07F47A7FB0331E81A464BB8
:107A6000059340F2D113089333694FF0000BCDE931
:107A700003B34FF0070303FB07116AEB01014FF457
:107A80007A720023FEF73CFB0534E4B2CDE90170C5
:107A9000CDF800804B462246012158460FF0E4FC09
:107AA00010F0FD0F0CD0354A354936484FF4E973D4
:107AB0002EF095F8404080F311884FF0030002DF6C
:107AC0000122022110460EF0E3F915B0BDE8F08F57
:107AD000C4F82B00988012E70022C4F82520A4F8EF
:107AE000292017E7254A28492648F8232EF077F859
:107AF000404080F311884FF0030002DFEEE60023E0
:107B000001220093184611460FF05AFD8CE76B7F57
:107B100043F040036B77281D1AF0A6F84FF00108D8
:107B2000E88323E710F042FC82453FF479AF134A23
:107B30001649144840F279232EF051F8404080F362
:107B400011884FF0030002DF6AE700BFAFF3008047
:107B50008D49FD1A0700000083DE1B437FC3C90166
:107B6000404B4C008C49FD1AC116040000CA9A3BD8
:107B7000911604008D49FD1AFD160400F0880600D8
:107B800004840600DC7D0600A08006004C89060007
:107B90002DE9F04F8DB01F46BDF860300793CDE959
:107BA0000501BDF868309DF85C90BDF864B00493A1
:107BB0000020164613F094FB002800F0658109F0C0
:107BC0000108044640460FF027FE0390B8F1000F6D
:107BD0006DD1169B03993A46404614F049F80028A7
:107BE00040F06381236A04F11C020892002B65D0E7
:107BF000D4F820A0DAF8005007F0010B9AF85A00E8
:107C0000C0F3C00100F007001BF012FEBAF85210DA
:107C1000BAF8502000F2D5130A441344CC48CD4A98
:107C20000721E3FB00211046C7A3D3E90023FEF799
:107C300067FA20F07F40286130461AF0E7FC94F89C
:107C400033306FF3410384F83330FF2384F834304A
:107C5000002E00F01D81A9F10203012B40F22981C1
:107C600094F84810089869F3420184F8481094F891
:107C700033106BF30001DDE9052384F83310169906
:107C80000968616216998988218504992186009680
:107C90000021FFF7B9F860641BF064FF002840F092
:107CA00013812046FFF7DCF80DB0BDE8F08F062108
:107CB0000EF092F800288CD11220F5E710F086FA29
:107CC0000990002800F0738113F008FD0546002894
:107CD00000F06A8120300EF03DFA05F11C0A002800
:107CE00040F01D81032105F124001BF055FC079B8A
:107CF000D5F888006B854FF6FF73A5F82CB02B855F
:107D0000002800F0198105F17C0205F178010EF0E0
:107D10006FF8B5F8763023F4EF6323F0070343F4EC
:107D2000887343F00103A5F8763095F88E304FF054
:107D3000000B23F0070385F88E300121C5F888B0C9
:107D4000A5F88CB0284614F0EDFBC5F82EB0A5F8C8
:107D500032B005F1340019F031FF95F8393060F395
:107D60000503012185F839300DF12F001BF014FCBB
:107D7000049B9DF82F20A5F88C31774B85F83BB0FC
:107D8000A3FB0213DB0803EB4303A2EB830295F88A
:107D90003930A98DA5F88EB103F03F0385F839304D
:107DA00095F83C30A5F884B1053223F0030385F83B
:107DB0003A20079A85F83C3040F2E24B674B0BFBC8
:107DC00002FB4FF4C0225B44C5F88821881DB3FB39
:107DD000FBF39AB28242A5F8862102DD063A521AD6
:107DE00092B2A5F88221284616F046FA594628464E
:107DF00016F0BAFA099BC5F85431002385F85031C2
:107E000013F02AFF95F8942160F3020285F894217B
:107E100013F028FF95F8942160F3C50285F89421AA
:107E200095F88021002363F3410285F8802105F154
:107E3000D40015F0A9FF95F89A21169907F0010BC7
:107E40006BF3410285F89A213122AA600023169A29
:107E50006B60EB601268C5F8A12195F89A218988BA
:107E6000A5F8A51169F30002039985F89A210A681B
:107E7000C5F89B218A88A5F89F21C4F820A0C5E9F0
:107E800005332B70ED61B9E60C200DB0BDE8F08F25
:107E90001AF0FCFF00283FF4DEAE16993846324651
:107EA0001AF02EFD84F83400D5E60B200DB0BDE8A5
:107EB000F08F00201AF0CEFB94F8333043F0020329
:107EC000C14684F83330CBE6256AEB6E63B1244AB1
:107ED0002449254840F21D432DF081FE404080F3A7
:107EE00011884FF0030002DF05F1600105F15C002D
:107EF0000DF082FF064600283AD02F68EE66D7F8CC
:107F00005451002D42D0284610F066F9384613F03F
:107F1000EBFB0023032023620DB0BDE8F08F104A75
:107F200012491148C1232DF05AFE404080F31188B8
:107F30004FF0030002DFD5E605F18000C5F88800A8
:107F4000E1E600BFAFF300808D49FD1A0700000095
:107F500000CA9A3B8C49FD1AABAAAAAA7FC3C901E1
:107F60007C89060034820600DC7D0600387E06002F
:107F7000104A1149114840F21F432DF030FE404095
:107F800080F311884FF0030002DFB6E7094A0A497F
:107F90000A4840F226432DF022FE404080F311882B
:107FA0004FF0030002DFAEE7099810F015F9072043
:107FB0007AE600BF7C89060090830600DC7D06001F
:107FC0002DE9F04F04468DB090F81C80238D406A57
:107FD000ADF82C30E307C8F3C0170E461546C8F3BA
:107FE00040180A9000F10D810023A383B37C707CBC
:107FF00013F001031CBFD4F81E30C4F82B3004F179
:108000002B0214BF638CC4F82B30FF28938004F13B
:10801000250904F11F0240F0E5800023BDF82C1073
:108020000A98C4F82530A9F80430A777C4F81F00CF
:1080300091803368D3F80090EB8963862B8AA386FE
:10804000B9F83030E3861BF0DDFD84F838002F6886
:10805000384613F04FFB0021A881E080384616F027
:1080600097F9D6F804A02068214610F0C7F8AB892C
:10807000AAF806301C23DAF800408AF80430B8F178
:10808000000F40F0CC808AF81C805146204610F04A
:10809000BFF8BB687A6895F85A00B5F80E80F568A5
:1080A000674C934238BF1346C0F3C00103F1090A7D
:1080B00000F0070040F2E24303FB08F81BF0B8FBB6
:1080C000002202212D1A01200DF0E2FE484613F095
:1080D000DDF8A5FB044558A3D3E9002383462946D0
:1080E0002046FEF70DF8CDF80490B368554900918D
:1080F00020F07F490BF10402A3EB0A03D2B24B44F8
:10810000012100200FF09EFA10F0FD0F0CD04E4A16
:108110004E494F4840F23D332DF061FD404080F321
:1081200011884FF0030002DF4FF0000B5B46032283
:108130000121CDF800B058460FF042FA384613F04E
:10814000D9FAB36806463E48A3EB0A0AA8FB000129
:1081500039A3D3E90023FDF7D3FF19463D4B08931C
:108160003D4B069340F26D33079709933B69804678
:10817000CDE904B3104600234FF47A72FDF7C0FF37
:10818000364B0722A9FB0331CDE9028002FB09111E
:10819000E01A65EB01014FF47A720023FDF7B0FF9E
:1081A0000536F6B2CDE900905346324601215846D5
:1081B0000FF076F910F0FD0F0CD0234A2349244824
:1081C00040F26E332DF00BFD404080F311884FF0EC
:1081D000030002DF0122022110460DB0BDE8F04F7E
:1081E0000DF056BE04F11E0119F046FFA37FBDF845
:1081F0002C200A98C4F825000233A377A9F804209C
:1082000017E7114A1649124840F2BD232DF0E7FC4A
:10821000404080F311884FF0030002DFE4E66B7FFB
:1082200043F040036B77281D19F01EFD4FF0010845
:10823000E88328E7AFF300808D49FD1A07000000AE
:1082400000CA9A3B711804007C8906000484060069
:10825000DC7D060075180400A51804008D49FD1A80
:10826000A0800600000000000538C3B2052B0CD822
:1082700070B580B20D4613F045FA044618B190F976
:108280003930002B03DA002070BD0020704790F8D1
:1082900076000F4EC0F3C00100F007001BF0C8FAD3
:1082A0000C4A00F2B5500721E0FB0621104606A358
:1082B000D3E90023FDF724FF20F07F40286020460B
:1082C00070BD00BFAFF300808D49FD1A07000000AC
:1082D00000CA9A3B8C49FD1A2DE9F04F93B0FF2458
:1082E0000B930B1D0A930023CDE90E33054616466A
:1082F0008DF837409B464FF0040A1F469946984632
:1083000010AB0693564B0593564B03930FAB01935B
:108310000EAB00200093022310930490029033468A
:108320000DF1370229460FF0D1F9022815D0109B24
:10833000CBB9FF2C26D03368BB4223D0BAF1000F53
:1083400040D00AF1FF3AFF245FFA8AFA8DF83740ED
:10835000D6E7294600200FF005FA109B022BF8D033
:10836000109B002BE5D0404A404941484FF4F77339
:108370002DF035FC404080F311884FF0030002DF00
:10838000FF2CD8D19DF83700FF2829D011A9FFF77D
:108390006BFF0028B4D0FF2C0E9F119B0AD04146E2
:1083A000384609930FF0F8F90A9B03EB0902904253
:1083B000099B17D8B8469DF837403768DDF83CB0C0
:1083C00099469DE72B49284A29484FF4FB732DF025
:1083D00006FC404080F311884FF0030002DFB0E755
:1083E000FF2C34D024480721A9FB000301FB0931ED
:1083F00019A3D3E90023FDF783FE044600B14034FE
:108400001E4AABF57423A3F51073934216D81A488D
:108410000721A8FB000301FB08310FA3D3E90023C8
:10842000FDF76EFE164BA3FB0B2304EB93440B9B53
:10843000044400201C6013B0BDE8F08F0BF1E87B12
:108440000BF5D43B08F1FF380BF5A57BDFE76FF0A8
:10845000090013B0BDE8F08F00CA9A3B000000008D
:10846000811B0400851B0400C88906000C8A0600D5
:10847000DC7D0600148A06008D49FD1ABFBDF07F21
:1084800083DE1B43000000002DE9F043C668476807
:1084900073683D491A68D0F80090A7F57423A3F5D6
:1084A00010738B4283B0804607D907F1E87707F550
:1084B000D43709F1FF3907F5A57773681169DD89AC
:1084C000CDF8049006F1100301AA0220FFF704FF83
:1084D00000284ED10199A1EB09031B0237D40846AD
:1084E00049460FF059F9034628480721A3FB00022B
:1084F00001FB032122A3D3E90023FDF701FE346928
:108500000444002C346109DB40F2E24305FB03F331
:10851000A3422FD2E41AA342FCD33461D8F800302E
:108520001A48A3EB0903A3FB0002072101FB032167
:1085300013A3D3E90023FDF7E3FD154BA3FB073796
:10854000A0EB97402044306103B0BDE8F08348467B
:108550000FF022F903460D480721A3FB000201FB9F
:10856000032107A3D3E90023FDF7CAFD3469241AC8
:10857000C7E73469002CD1D103B0BDE8F08300BF58
:1085800000CA9A3B00000000BFBDF07F8D49FD1A74
:1085900083DE1B430000000010B5334C3349002339
:1085A00004F1FF3C14F83320072A02EB820E05D8B1
:1085B00011F83E206FF3451201F83E201CF83320DD
:1085C0006FF300020CF833200133082BEAD1284A5C
:1085D000284C002313700A7863F300020A7091F8A4
:1085E000282063F3000281F8282091F8502063F3DB
:1085F000000281F8502091F8782063F3000281F89E
:10860000782091F8A02063F3000281F8A02091F86F
:10861000C82063F3000281F8C82091F8F02063F3CA
:10862000000281F8F02091F8182163F3000281F82C
:108630001821114A9FED0A7B1370104B83ED007BCC
:108640000F4B236028B1BDE810400E490E483DF0A5
:108650001DB9BDE810400C483DF026B9AFF30080CD
:10866000FFFFFFFFFFFFFFFF397A0020F8780020AF
:10867000EC91002008780020EB910020003E0020C3
:10868000A0BB0D0041280400D03D002000000000E8
:108690002DE9F04F8FB00DF137010446DFF8E0A06F
:1086A000DFF8E0800DF136000FF030FE9DF8363037
:1086B0009DF837B00B930FF06DF8DAF80060A6FB69
:1086C000085629A3D3E900230027814631462846CE
:1086D000FDF716FDCDE90777069420F07F44DAF820
:1086E0000400234B0593A0FB08011FA3D3E900233B
:1086F000FDF706FD1F4B20F07F40A4FB033107224E
:1087000002FB0411CDE90370E81A66EB01014FF496
:108710007A720023FDF7F4FC0097CDE901404B4647
:108720000B985A4603210EF09FFE10F0FD0404D072
:108730006FF08B000FB0BDE8F08F0F480F4A002399
:108740002AF054FE20B9DAF80C000FB0BDE8F08F23
:108750009DF837209DF836000094234603210EF043
:108760002FFF6FF07300E5E78D49FD1A0700000049
:10877000912F04008D49FD1AAC7A0020447B0B0038
:10878000C47A002000CA9A3B38B50F4D04460FF05A
:1087900001F8A9680FF000F8696803460B48B3FBBD
:1087A000F4F4A1FB00011C4405A3D3E90023FDF769
:1087B000A7FC20F07F40844294BF0020012038BDF8
:1087C0008D49FD1A07000000C47A002000CA9A3BB8
:1087D000F0B5C468636883B00546002B63D11CF014
:1087E000ABFF00201CF0CEFF002108461CF0BCFFB0
:1087F0000022252108201CF0FBFF454B019301A816
:108800001CF0DEFF434940F25B601DF089F8237ADB
:10881000C3F3420262F30613204623721BF014FCDA
:108820001AF034FB58BB637A9B071FD127682E6868
:1088300038461AF09BFF06446A6806F109010120D8
:108840001DF0C8F91DF0B4FA204612F0E1FA811CBF
:108850003246C9B238461AF097FF054670BB20462B
:108860001AF01EFF88B9002003B0F0BD012019F0F6
:1088700081FE4178821C00781DF04CF9D6E7607AC1
:1088800010F0030018BF0120F1E7234A23492448D0
:1088900040F22C432DF0A3F9404080F311884FF0B3
:1088A000030002DFDFE793F820309A0797D01D48D6
:1088B00021461CF0FFFE1CF0EDFFD4E7164A1A49D2
:1088C000174840F214432DF08AF9184B0721A5FBF5
:1088D000030301FB05310CA3D3E90023FDF710FCD2
:1088E0001349024613482DF07AF9404080F311886D
:1088F0004FF0030002DF104821461CF0DBFE1CF0A5
:10890000C9FF6FF08B00AFE700CA9A3B0000000080
:10891000D6BE898E55555500C08D0600487F06008D
:10892000DC7D0600113904005C7E06008D49FD1ACD
:10893000708E0600448E0600193C04000000000002
:108940002DE9F041C46894F91630002B8CB0C0F2C8
:10895000FF80636805460E46002B40F0EE80A37D45
:108960006FF30003A3751CF0E7FE00201CF00AFF64
:10897000002108461CF0F8FE0022252108201CF0EA
:1089800037FF01200FF0C4FD0746002800F0C78024
:1089900007F11C001CF056FF874B0B930BA81CF033
:1089A0000FFF864940F25B601CF0BAFFA07DC0F368
:1089B000410025301AF0FAFE814821461CF07AFE6B
:1089C000A37D9B0603D46368002B00F0A58096204E
:1089D0001DF0F4F800231A46194618461DF006F853
:1089E0001AF054FA002838D1A37D13F0180F59D18A
:1089F000D4F800802F6840461AF0B8FE07446A6831
:108A000007F1090100201DF0E5F81DF0D1F91DF076
:108A10005DF8204612F048FC011DC9B240463A46B6
:108A20001AF0B2FE8046002840F0998016B9636AB9
:108A3000002B4ED1636843B1624B0122022100201A
:108A40009D600DF05BFA002835D120461AF028FE13
:108A5000D0B900200CB0BDE8F081A07DC0F3C0000B
:108A600019F088FD07460DF12B001AF087F8797888
:108A70008046BA1C38781DF04DF89DF82B00002276
:108A800041461DF065FAB3E74F4A5049504840F25D
:108A90000B232DF0A4F8404080F311884FF0030021
:108AA00002DFD6E7012019F065FD4178821C0078CD
:108AB0001DF030F89CE7444A4649454840F20623F9
:108AC0002DF08DF8404080F311884FF0030002DF55
:108AD000BBE7414A0792414A059240F2F3120093E4
:108AE0000892CDE90366CDE9016606943B4631461E
:108AF00003220EF0B9FC10F0FD0F9BD0324A38492A
:108B000033484FF4FA732DF06AF8404080F311882F
:108B10004FF0030002DF8DE71CF0C8FF60E72A4A30
:108B200030492B484FF4C5732DF059F8404080F37D
:108B300011884FF0030002DF2AE7636893F82030C2
:108B4000D90705D4636893F820309A077FF507AFFB
:108B5000254821461CF0AEFD1CF09CFE79E71A4A20
:108B600022491B4840F2E5132DF039F8204B07212C
:108B7000A8FB030301FB08310DA3D3E90023FDF794
:108B8000BFFA1C4902461C482DF029F8404080F3EA
:108B900011884FF0030002DF184821461CF08AFDBF
:108BA0001CF078FE6FF08B0054E700BFAFF300803D
:108BB00000CA9A3B00000000D6BE898E555555006C
:108BC000A18C0200B00C00207C8E0600487F0600BD
:108BD000DC7D0600507F0600914704003148040008
:108BE000808106000C8E0600113904005C7E0600B0
:108BF0008D49FD1AC88E0600448E06006D4604009D
:108C000038B504461BF0E2FCA37DA27DC3F341030B
:108C1000013303F00303032B08BF002363F3420275
:108C200014BF03F125002520A2751AF0BFFD63686B
:108C30000BB123694BB90EF0ADFDC11C00201DF036
:108C40003DF8BDE838401DF0B3B81DF065F80546A5
:108C50000EF0A0FDC11C00201DF030F81DF0A8F89A
:108C60001DF05AF829460EF097FD0B4A03460721DE
:108C7000A0FB020201FB032105A3D3E90023FDF7BA
:108C80003FFA23691B1A236138BD00BFAFF3008090
:108C900000CA9A3B000000008D49FD1A0000000048
:108CA0002DE9F0478AB004461CF026FEC0B250B948
:108CB0001AF0D4FDC44821461CF0FCFC0AB0BDE803
:108CC000F0471CF0E7BD1CF037FE05461CF056FFD0
:108CD00007461CF05DFF81461DF094F906461DF025
:108CE00073F982461CF00CFFEDB280461CF0ECFEDE
:108CF0001AF0B4FD002DDDD001200FF009FC05466F
:108D0000002800F04D8117F0FF07F6B240F0E38035
:108D1000002E40F0DA804FF0FF093A464B463146CC
:108D200020461BF079FE0028C4D02A7F616800230A
:108D30008DF823305FFA88F702F00F03002900F066
:108D4000EC80616891F82010880700F1E680072B1D
:108D5000B0D0A17D090740F14381002B40F0C480D1
:108D60006B7F063B1F2BA5D804200FF0D1FB0028FA
:108D7000A0D01DF025F8636A074643B9238C40F262
:108D8000712202FB03F3B0FBF3F203FB120723682B
:108D90001A698E4B0721A2FB030301FB023188A352
:108DA000D3E90023FDF7ACF96FF44A7C00EB0C0328
:108DB000BB42FFF47FAF1CF079FE4846636819F0B0
:108DC000C3FEE37D9907804640F1E581002800F06D
:108DD000E281824601271CF0BDFDCDE9027A09AB94
:108DE000049305F11E0301932B7FC3F38013014607
:108DF000074600930022012320461BF027FE384639
:108E00001CF026FD1CF06EFD002840F0CA81704861
:108E100021461CF04FFC626892F8203043F00103B9
:108E200082F82030A37D43F08003A3750FF092FBFE
:108E3000172202714FF6FF72C28095F81CC082465D
:108E40003B46CCF3401C00F11C0207F1200E1D68CC
:108E500058689968DF68D7601033734515605060B3
:108E6000916002F11002F2D11B6813609AF81C3075
:108E7000CAF808406CF345138AF81C301CF04CFF0C
:108E8000002ECAF81000099BCAF8143008BF4FF032
:108E9000FF098AF81990E37D13F0020303D0B8F1BB
:108EA000000318BF01239AF81A2063F300028AF81E
:108EB0001A200FF04FFBCAF80C00DAF800005146F8
:108EC0000AB0BDE8F0470FF073BB5FFA8AF019F003
:108ED000C9FE814621E7A07D5FFA89F1C0F3C00099
:108EE00019F056FE814618E7012B40F089806A7F11
:108EF0000C2A7FF4DFAE2A7FCDF8009019460023BC
:108F00000193D20905F1240320461BF0D9FC002867
:108F10007FF42AAF2B7F03F00F03002B70D16B7F00
:108F2000052B7FF6C7AE252B3FF6C4AEA27D02F01F
:108F30002102202A09D16268002A00F0C180052B95
:108F40007FF6B8AE252B3FF6B5AE63682BB12B7F0D
:108F500003F00F03072B7FF4ADAE03209DF82380B1
:108F60000FF0D6FA054600283FF4A4AE0FF0F2FA4F
:108F70004FF6FF73EB8005232B71002F3CD17F2030
:108F8000AB7E2876002E08BF4FF0FF0968F341033F
:108F9000286885F81990AB7629460FF009FB89E619
:108FA0000C4A0D490D4840F2C7232CF018FE4040F2
:108FB00080F311884FF0030002DFA4E6AFF30080D6
:108FC00000CA9A3B00000000854604008D49FD1A46
:108FD000754804007C8E06000C8E0600DC7D0600C1
:108FE000B9F1FF0F8DF82490C2F380184BD0227E88
:108FF00091453FF4B2AE90E71CF072FDC0B2BFE7FE
:10900000062B8CD04521D94011F0010139D1012B1B
:1090100010D16B7F0C2B7FF44DAE2A7FCDF80090E2
:109020000DF123030193D20905F1240320461BF01F
:1090300047FC08BB2B7F03F00F03042B7FF43AAEF1
:109040006B7F063B1F2B3FF635AEA37DDB077FF51D
:1090500031AE1CF07FFC2B7F0278C3F38013B3EB9F
:10906000D21F7FF427AE0830062205F11E013DF025
:10907000FFF800287FF41EAE6B7F002B7FF465AFF6
:1090800018E66B7F5BE705F11E0A09AA51464046C8
:1090900019F09EFE00283FF43DAFE37D03F001038D
:1090A00043457FF437AF5146062204F108003DF0F6
:1090B000DFF800287FF42EAF2B7F03F00F034CE680
:1090C000962007921CF07AFD079A10461CF046FC89
:1090D00003200FF01DFA804600283FF4EBAD0FF09F
:1090E00039FA4FF6FF73A8F80630052388F80430E4
:1090F000002F64D17F23002E88F8183014BF4B4610
:10910000FF2388F8193098F81A30D8F800006FF368
:10911000410388F81A3041460FF04AFA1CF01AFC55
:1091200006460322337862F3030333702B7F3278D1
:10913000C3F3801363F3C7120C2332704846737075
:1091400019F002FDE27D92073DD500283BD0317831
:10915000324641F0400102F8021B0168C6F80210D5
:1091600083889380D5F81E30B3606B8CB381304612
:109170001CF06EFB1CF0B6FB002835D11CF018FE6D
:10918000A37D204843F001032146A3750AB0BDE842
:10919000F0471CF08FBAA77D04F1190AC7F38017B6
:1091A00019E6194A19491A4840F2A4432CF017FD50
:1091B000404080F311884FF0030002DF27E61CF0E7
:1091C0008FFCC3B297E7A37D3278C3F3801363F3B8
:1091D0008612334603F8022BD4F81920C6F8022071
:1091E000B4F81D209A80BDE7074A084908484FF4A3
:1091F000A5632CF0F4FC404080F311884FF003008D
:1092000002DFBBE7994604007C8E0600148E060040
:10921000DC7D0600000000002DE9F041C468A28951
:109220004FF6FF739A4282B000F0C78005461BF0EC
:1092300011FD2B89628AE08A1A4492B21044637F3E
:10924000A28280B2411CE1825E064FF00001618281
:1092500004F1180100F18C8003F03F000B46A17F60
:10926000009004F11F0018F0B7FC0646D4E90B2368
:109270001344D4E90D0200210244E1626163A16A52
:10928000A26394F872208B4228BF0B4612F00402AE
:10929000236377D01CF050FA00201CF073FA201DD5
:1092A0001CF08EFA2389A17A40F25B6043EA014107
:1092B0001CF036FB30461AF079FA214658481CF06B
:1092C000F9F996201CF07AFC94F85A2094F85B0087
:1092D000C2F3C003002102F0070200F007001CF0F7
:1092E00085FB20461BF018FD27682E6838461AF0CB
:1092F0003DFA06446A6806F1090100201CF06AFC88
:1093000080461CF029FD00201CF040FD236B94F8E2
:109310005B0003F13002A36B00F00700012103EBB7
:1093200042051CF0A3FA4544054494F85B0000F0A4
:109330000700022824D004280CBF4FF4BC73282354
:1093400001211D441CF094FA28441CF0F7FCA1896B
:1093500005313246C9B238461AF016FA054698BBAE
:1093600020461AF09DF9D0B9002002B0BDE8F08186
:109370000A4603F03F03E18B18F07AFC064675E7D6
:109380001823DDE7D4E917010CF04AFD002881D14C
:1093900094F8723043F0040384F872307AE7214A7B
:1093A0002149224840F255132CF019FC404080F32B
:1093B00011884FF0030002DFD6E71D4821461CF05C
:1093C00079F91CF067FACFE7164A1A49174840F2B4
:1093D0004B132CF004FC184B0721A5FB030301FBE6
:1093E00005310DA3D3E90023FCF78AFE1349024699
:1093F00013482CF0F4FB404080F311884FF0030039
:1094000002DF104821461CF055F91CF043FA6FF0BA
:109410008B00AAE7AFF3008000CA9A3B000000006F
:10942000714F0400488F0600487F0600DC7D06006F
:10943000113904005C7E06008D49FD1A9C8F0600E0
:10944000448E0600ED380400F0B5C468A2894FF6DA
:10945000FF739A4285B000F08B8005461BF0FAFB43
:109460002B89628AE08A1A4492B21044637FA282F6
:1094700080B2411CE1825E064FF00001618204F17E
:1094800018015FD403F03F000B46A17F009004F168
:109490001F0018F0A1FB0646204603A91BF00AFD99
:1094A000039B94F872101A7861F3C3021A70039A3E
:1094B00094F872301178C3F3400363F382011170A2
:1094C0001CF03AF900201CF05DF9201D1CF078F921
:1094D0002389A17A40F25B6043EA01411CF020FA43
:1094E00030461AF063F9039920461BF0B7FC214679
:1094F00037481CF0DFF896201CF060FB94F85B0006
:1095000000F007001CF02AFA27682E6838461AF087
:109510002DF906446A6806F1090101201CF05AFB86
:109520001CF046FCA18905313246C9B238461AF012
:109530002BF9054618BB20461AF0B2F850B90020A6
:1095400005B0F0BD0A4603F03F03E18B18F090FB35
:109550000646A1E71F4A2049204840F203132CF099
:109560003EFB404080F311884FF0030002DFE6E746
:109570001B4821461CF09EF81CF08CF9DFE7154AC9
:1095800018491648F9232CF02AFB174B0721A5FB95
:10959000030301FB05310CA3D3E90023FCF7B0FD65
:1095A0001249024612482CF01AFB404080F3118801
:1095B0004FF0030002DF0F4821461CF07BF81CF03F
:1095C00069F96FF08B00BBE700CA9A3B000000000E
:1095D000A54D0400A88F0600487F0600DC7D06002C
:1095E000113904005C7E06008D49FD1AF88F0600D3
:1095F000448E0600ED3804002DE9F0472DED028B76
:109600009FED498B4A4E84B004464FF02003EFF3A0
:10961000118783F31288BFF36F8FD4F8C8508DB9C8
:10962000022104F1E0003CF07AF8002843D1002345
:109630008DED008B029304F1D00239463D482AF0AB
:10964000B3FBE2E7D4F8CC202B68C4F8C8309542CD
:1096500008BFC4F8CC30D4F8E03043F00203C4F8BB
:10966000E030EB6823F0040343F00103EB606B6828
:1096700087F31188BFF36F8F284698474FF0200378
:10968000EFF3118983F31288BFF36F8FEB689907AB
:1096900023F0010219D4EA60D4F8E03023F0020389
:1096A000C4F8E03089F31188BFF36F8FDB05ACD4C9
:1096B0002AF05AFAA9E704F1D80500220121284628
:1096C0003CF033FA0028F8D1B1E7306823F0030307
:1096D000EB600028E0D00027D0F80080BA460028D0
:1096E000DAD04268954201460BD1016897B9726899
:1096F0003160824200D1716040F808AB29F050FE21
:109700003946B8F1000F0BD0D8F8002040460F467C
:109710009046E4E739607268824208BF7760EBE701
:109720004246F3E7AFF30080FFFFFFFFFFFFFFFFBD
:10973000908F002014930020014829F033BF00BF10
:109740008002002007B53CF02DFA4FF47A72A0FB9E
:10975000020302FB0131C00B074A40EA414010609E
:1097600000234FF400420548CDE900232AF0FAFC1B
:10977000002003B05DF804FBA85100203810002041
:10978000014B187800F068BAAC900020044B1A78AE
:10979000824202D01870FFF7F3BF0020704700BF6D
:1097A000AC90002008B53CF0FDF94FF47A72A0FBB4
:1097B000020302FB0131C00B044A40EA4140106041
:1097C000BDE808400020FFF7E1BF00BFA85100201E
:1097D00008B53CF0E7F94FF47A72A0FB020302FBF4
:1097E0000131084AC30B126843EA41439B1A47F20E
:1097F0003052934204DDBDE808400120FFF7C6BFA8
:1098000008BD00BFA8510020014B1878704700BF69
:10981000AC900020F8B5044610B900252846F8BDE4
:109820000378002BF9D00F4E0F4FBE420FD30D4ED1
:10983000BE42F2D230683BF0C5FD30B135682146FA
:109840002868FCF7C7FD0028E8D00436F0E7306848
:109850003BF0B8FD18B135682B68A342DED0043662
:10986000E3E700BF042107002C21070030B5184CA6
:109870008DB00022002303A9204629F04DFC08B139
:109880000DB030BDDDE90415039800F055F800284F
:10989000EFDBFF238DF81830B5FA85F35B090790ED
:1098A0008DF820303CF07EF94FF47A72A0FB020371
:1098B00002FB0131C00B40EA4140C90B8DE80300B7
:1098C00006ABCDE90A010FCB00F0E0F9D1E700BF0C
:1098D000741200201FB583F00103CDE90112039338
:1098E0000022002301A9044829F0C0FB034829F005
:1098F00059FE05B05DF804FB74120020AC51002045
:1099000010B5044678B1094909483BF07BFFA368CC
:1099100008491B6820469847A3689B680BB12046FE
:109920009847002010BD6FF01500FBE76D9802000E
:10993000AC510020D598020001EB00114A2905D84E
:10994000044B53F8210008B1013870476FF015003F
:10995000704700BF6C6A060030B51C4C04EB001465
:109960008FB0606883683A21DB68984758BB6068AD
:109970006189836804AD1B692A46984718BB95E83E
:1099800003000123069307AB83E803006389ADF866
:1099900024303CF007F94FF47A75A0FB053205FB43
:1099A0000121DB0B43EA4143C90BCDE90A31237B9B
:1099B0008DF830300EAB13E90F008DE80F0006ABC9
:1099C0000FCB00F089F90FB030BD00BFA00200201E
:1099D000094BBFF35B8F53E8002F22F0010143E8EE
:1099E00000100028F7D1BFF35B8FD30702D500200A
:1099F000FFF7B2BF704700BFBC51002008B5054952
:109A0000486828B183689B6813B1034A08319847B6
:109A1000002008BDA00200201D9A020008B50E4BD0
:109A2000994218D13BF08EFD88B1BFF35B8F0B4B91
:109A300053E8001F41F0010143E80012002AF7D16A
:109A4000BFF35B8F0648BDE8084029F0ABBDBDE819
:109A50000840FFF781BF08BDA8020020BC510020CC
:109A60009002002001289ABF024B03EB4000002027
:109A7000704700BFD40E0020F8B50F4D0F4E761B77
:109A800007460C4605EBC105C6F3C706A64201DC36
:109A900000200CE02A683B689A4209D13C716B684F
:109AA00038461B68984718B1431E012BF0D9F8BD02
:109AB00001340835EAE700BF880B0700080C0700EF
:109AC0000D4B0E4AD21A70B4C2F3C7020024A24250
:109AD00003DC6FF0150070BC70471E680568AE426D
:109AE00006D15D688D4203D1E1B270BCFFF7C4BFFF
:109AF00001340833EBE700BF880B0700080C0700B0
:109B000000B58BB0064B074A282168462AF002FCB4
:109B100005490122684603F073FE0BB05DF804FBB3
:109B200056A0060060A00600AD9000202DE9F0418F
:109B3000466807693179F38804463068D0F810E048
:109B4000D0F80880DEF80050DA0754BF43F4B013B1
:109B500083F4D0134FF0010C23F480120CFA01FCB3
:109B6000DB074CBF45EA0C0525EA0C05CEF8005092
:109B7000D8F80030984760BB03F096FF164803F012
:109B8000CFFE054610BB154915483BF07FFE154832
:109B900003F070FE7B785BB901233B700022002349
:109BA0000F4829F067FDA3681B680BB12046984752
:109BB000318959B140F2E7304FF47A72002300EB5B
:109BC000C1300021FCF79CFA2AF050F82846BDE885
:109BD000F0816FF00405F9E7B0020020019B02005C
:109BE0000015002073A0060008B54FF4F012002302
:109BF000024829F073FD00EAE07008BD001500205E
:109C0000F7B50C461646114901AA1F462CF042FB37
:109C1000B0B1019BA3B9012C15D10D4D22462946A7
:109C20003846B047002806DB2B780A486C7023B111
:109C30002AF00FFF002003B0F0BD2AF01CFFF9E767
:109C40006FF00100F7E76FF01500F4E756A006008B
:109C5000AD900020846606001FB50023CDE90233D5
:109C6000044B8DF80C0001A801932AF0DCFE05B02E
:109C70005DF804FBB06B06000268034B9A420CBF10
:109C800008300020704700BFB06B060084B030B5CC
:109C900089B00CAC84E80F00002301930CAD084B95
:109CA00000930FCD02AC0FC495E8030084E80300D5
:109CB00068462AF0B8FE09B0BDE8304004B07047ED
:109CC000B46B06000268034B9A420CBF08300020B8
:109CD000704700BFB46B060084B030B58BB00EACDB
:109CE00084E80F00002301930EAD084B00930FCDC5
:109CF00002AC0FC495E80F0084E80F0068462AF014
:109D000092FE0BB0BDE8304004B07047B86B06005F
:109D10000268034B9A420CBF08300020704700BF16
:109D2000B86B06001FB50023CDE90233044B8DF854
:109D30000C0001A801932AF076FE05B05DF804FB43
:109D4000C06B060082B038B504A981E80C00054656
:109D5000114828F047FF0446A0B16B68012B0CD0D6
:109D6000022B05D0A3B9BDE8384002B02AF0B6BE38
:109D70002AF0BBFE00282046F5DCBDE8384002B0E2
:109D80002AF0A5BE6FF00400BDE8384002B070476D
:109D90006FF08500F8E700BF56A0060082B010B54E
:109DA00002A981E80C0004460B4828F01BFF78B19B
:109DB0006368022B04D00020BDE8104002B0704759
:109DC0002AF093FE0028CCBF002001206060F2E75B
:109DD0006FF00400F0E700BF56A00600014B1878B2
:109DE000704700BFB19000200D4A52F82030013377
:109DF00042F820300B4A0123117883400B430A4973
:109E00000978DBB2137023EA01030849084A09788C
:109E100050780B43181A537018BF0120704700BFC9
:109E2000C0510020B1900020AF900020B0900020E1
:109E3000DB0F002010B5114A52F82030002B19DD3D
:109E4000013B42F820300E4A2BB9137801218140A2
:109E500023EA010313700B480B4B047810780B4A6C
:109E60005978127820EA040010435870401A18BF3D
:109E7000012010BD6FF01500FBE700BFC0510020AE
:109E8000B1900020AF900020DB0F0020B0900020A8
:109E9000044A012312788340D8B213401B1A584257
:109EA00058417047B190002010B5084B084A18700F
:109EB000084B51781C78084B1B7823EA040318439D
:109EC0005070401A18BF012010BD00BFB090002094
:109ED000DB0F0020AF900020B1900020074B002244
:109EE0001A70074B074A1978074B50781B7823EAFA
:109EF0000103181A537018BF01207047B09000205A
:109F0000AF900020DB0F0020B1900020074B084AE3
:109F10001870084B51781B7823EA00030648007834
:109F200018435070401A18BF01207047AF900020AE
:109F3000DB0F0020B1900020B0900020074B0849B3
:109F400000221A70074B084A1B78097850780B4397
:109F5000181A537018BF0120704700BFAF9000203F
:109F6000B0900020B1900020DB0F0020A0F1E003B2
:109F7000072B03D82030C0B2FFF736BF064B0622AE
:109F800013F8011F19B1013AFAD100207047187077
:109F90000028F8D0F9E700BFDD0F0020A0F1E003B2
:109FA000072B10B405D820305DF8044BC0B2FFF782
:109FB00041BF0023064A194612F8014F0133A0425F
:109FC00008BF1170062BF7D100205DF8044B7047D5
:109FD000DD0F0020A0F1E003072B03D82030C0B232
:109FE000FFF756BF064A002312F8011F884204D02B
:109FF0000133062BF8D1002070470120704700BFC5
:10A00000DD0F0020024B00221A605A60704700BF2B
:10A01000DC0F002010B50849002301EB4302B2F821
:10A02000014024B10133062BF7D1002010BDA2F866
:10A0300001000028F6D0F8E7CE0F002030B500234D
:10A04000074C194604EB43020133B2F80150854234
:10A0500004BF51709170062BF4D1002030BD00BFB9
:10A06000CE0F0020024B00221A605A609A6070479F
:10A07000CF0F0020074A002302EB4301B1F8011083
:10A08000814204D00133062BF6D100207047012015
:10A09000704700BFCE0F002000487047DB0F002044
:10A0A00000487047CE0F00202DE9F0410B4E337869
:10A0B00083B10B4CDFF82C80002542F20F7720464D
:10A0C000414601353BF0E2FB0A2D44F8207C04F1C7
:10A0D0005804F4D100203070BDE8F081E40F002076
:10A0E000901B0020834D05000B4A30B50023044629
:10A0F000282000FB03F18D18515C41B90FCC0FC52E
:10A100000FCC0FC594E8030085E8030030BD013390
:10A11000282BEED1FAE700BF3015002010B5C26938
:10A12000037ED17D8EB0044609B1032B34D0023BAF
:10A13000012B517D07D800292ED120460EB0BDE855
:10A1400010402AF0FBBD21B1937D13B920462AF0BF
:10A1500088FD0023CDE9033306930593E369226864
:10A160009B680393D4E90401A36804930B4B079203
:10A17000C3E90201CDE908011A6006AB0FCB0AACB6
:10A1800084E80F000EAB13E903008DE8030003A879
:10A1900094E80C002AF088FD0EB010BD00000020ED
:10A1A0002DE9F843027E0346002A6ED13B4D2A6812
:10A1B00082426AD1D269547D24B119B9BDE8F8430D
:10A1C0002AF0BCBD107D032828D8DFE800F0020E7D
:10A1D0001F600139042921D8DFE801F01E032005A2
:10A1E0001E00022119E0032117E00139042915D8C6
:10A1F00001A050F821F000BF19A202001DA2020028
:10A20000E3A10200E7A1020019A202000429EAD09A
:10A2100001F0FB01012901D101211976197EA1B3B9
:10A22000D06900280DDD5C6D611C0AD01C32002154
:10A2300052F8046FA64204D001318842F8D10122BD
:10A240001A76002218462A60FFF768FF2C68E4B9E6
:10A25000134EDFF85080A14616F8087CAFB12B688A
:10A2600006F8089C23B14FF4A470002129F0FEFCED
:10A27000012F01D0022F03D141463046FFF720FCC9
:10A280000134282C06F12806E6D1BDE8F88302291E
:10A29000A7D0BFD904390129BED9BFE7E0510020BA
:10A2A000381500202C6C060082B02DE9F0412F4EAD
:10A2B00006A981E80C000024582202FB04F085194D
:10A2C00031588B424AD1203030443BF0EDFAEB69F3
:10A2D0001968D5E904238A1843EBE17308998A4287
:10A2E000099A9341804603DA04212846FFF758FF74
:10A2F000582707FB046701212846FFF751FFFB6938
:10A30000DB7D53B13B7E032B07D128462AF0E6FCC8
:10A31000012328463B76FFF701FF28462AF0DEFCA2
:10A32000582303FB0463DB695A7D22B19B7D13B183
:10A3300028462AF096FC18F1770F4FF058031DBFFE
:10A340005C4342F20F72331903FB046317BF3251AF
:10A35000012200221A7683F8502002E001340A2CF0
:10A36000ABD1BDE8F041002002B07047701B002067
:10A3700082B02DE9F84F05460AA9006881E80C0073
:10A380002AF04FFB3A490C6802469CB9D5E9019A7C
:10A39000DDE90CC0DDF82CE0364F4FF0580842F2F2
:10A3A0000F7B08FB04F6F519BB595B4507D0013458
:10A3B0000A2CF6D1BDE8F84F002002B07047D2F861
:10A3C000048047F806E0C5E9019A0023C5E904C006
:10A3D000DFF8A4902B764FF0FF33C5F81C806B6537
:10A3E0000D60D9E90221D8F8103013EB020A41EBD5
:10A3F000E373D44570EB03030CDBD9F800309E45C2
:10A400000CD1D8F80C309A1841EBE371944570EBFD
:10A41000010103DA05212846FFF7C2FE0021284684
:10A42000FFF7BEFE582303FB04742169D8F80040EF
:10A430000C443BF0B7FB4FF47A72A0FB020302FB23
:10A440000131C30B43EA4143E11A21EAE17140F2D1
:10A45000E7304FF47A72002300EBC1304914FBF768
:10A460004FFE203602460B46B81929F003F9A1E742
:10A47000E0510020701B0020000000202DE9F04179
:10A480008AB00446FFF71EFC00286CD02046FFF778
:10A4900019FC524D47680446002642F20F782B689B
:10A4A0009F420CD043450AD0EB69DB7D3BB12B7E4C
:10A4B000032B04D102232B762846FFF72FFE01360B
:10A4C0000A2E05F15805EAD1454D286808B9002043
:10A4D0002CE0C369227A197E914204D0426D013288
:10A4E00004BF62684265016862689142EFD01968F2
:10A4F000D0E904238A1843EBE173D4E90461B24242
:10A500008B4116DB237ADBB10123214602A88DF8AB
:10A5100000302AF0C1FA6846FFF7E6FD217A286884
:10A52000C1F10301C9B2FFF73BFE02200AB0BDE84A
:10A53000F0810421FFF734FE2B68002BC7D0E1E740
:10A540006068284A11780029C1D0012905D15169D4
:10A55000884202D1117E0029D6D10133282B02F185
:10A560002802EFD1B3E7204600F0EEFA0028DDD054
:10A57000204600F0E9FA837A01469BB14368E03B4C
:10A58000072B02D80378072B0CD0174BD1E9040214
:10A59000D3E9025485429441BEBFC3E902024FF0A1
:10A5A00000441C600E4B18680028BFD04B68E03B8D
:10A5B000072B8CD80B78072B89D1C3695B7D13B12E
:10A5C000007E0028B2D002A802248DF800402AF0B4
:10A5D00095FD6846FFF788FDA7E700BF701B0020C8
:10A5E000E0510020301500200000002008B5094B84
:10A5F0001B7823B1012B06D06FF0850008BDBDE8A4
:10A6000008402AF0A8BEFFF747FDBDE8084001302A
:10A6100000F0D6BDE851002008B5094B1B7823B1E6
:10A62000012B06D06FF0850008BDBDE808402AF078
:10A630009ABEFFF735FDBDE80840013000F0E6BDE9
:10A64000E851002002490348012203F0D9B800BFB5
:10A65000B290002077A1060070B50025064605607F
:10A6600000F0C0FB044680B101F092FA022806D047
:10A6700000F0C4FC012370603370304670BD064B9F
:10A680001B78012BF4D02846F5E701F081FA022867
:10A69000EED123462046EEE7B290002073B503F0DA
:10A6A00003FA0C4803F03CF9044678B90A490B4810
:10A6B0000B4E3BF0EBF86D460A4803F0DBF82846FA
:10A6C000FFF7CAFF95E8030086E80300204602B0C2
:10A6D00070BD00BF2403002045A60200E01E00203C
:10A6E000E85100208BA1060082B00DF1080C0CE9A6
:10A6F000030019469DF8003010461BB1012B05D010
:10A70000054A00E0054A02B029F004BE019B044A54
:10A7100002B029F0FFBD00BFA0A1060095A1060070
:10A7200099A10600034A034692E8030083E8030068
:10A7300018467047E851002030B589B001AD0F4C84
:10A740002846FFF789FF94E80C0095E803002AF0FB
:10A75000D3FB80B92AF0F7FB95E803000A2305AA8A
:10A7600084E80300FFF7C0FF94E8030003AB83E82D
:10A77000030000F023F809B030BD00BFE85100200D
:10A7800070B50C4615460B4900221E462BF082FD83
:10A7900008B9002070BD012C08D107492246304677
:10A7A000A8470028F6DDFFF7C7FFF2E76FF01500B6
:10A7B000F0E700BF81A10600B29000207FB56B4694
:10A7C00083E8030093E80300002206AB03E90300DB
:10A7D000039202A8034A02922AF025F907B05DF815
:10A7E00004FB00BF946C060002281FB530D830BBB4
:10A7F00011B9002004B010BD174B1A680123834023
:10A800001343154C9A422360F3D08DF800008DF865
:10A8100001103BF0C7F94FF47A72A0FB020302FB70
:10A820000131C00B40EA4140C90BCDE9020104AB44
:10A8300013E90F0004B0BDE8104000F053B9064B17
:10A840001A680029DAD10123834022EA0303D8E7FA
:10A850006FF01500CEE700BFFC520020014B1968D5
:10A860002AF0CABBFC52002002289ABF024B53F8C0
:10A8700020000020704700BFA06C06002DE9F047C3
:10A8800015464FF42E724A431F460C2303FB052244
:10A890003C4B2DED028B134480460E4693E8070097
:10A8A0008CB005AC84E807009DED168B2AF0B9F852
:10A8B0008146002860D00598CDE908658DED0A8BAA
:10A8C0002AF0AFF88368D3F804A0BAF1000F09D0DA
:10A8D0000CAB13E90300DDE908238DE803002046F3
:10A8E000D04758BBD9F808301B78012B13D0022B66
:10A8F00029D0002B42D1CDE908658DED0A8B0CAB38
:10A90000029713E903008DE803002B4632462046E8
:10A910002AF08EFB12E0CDE908658DED0A8B0297D7
:10A920000AAA92E803008DE8030008ABB8F1FF0F14
:10A930000CCBECD0214640462AF09BFC0CB0BDEC81
:10A94000028BBDE8F087CDE908658DED0A8B029793
:10A950000AAE96E803008DE8030008AD95E80C0008
:10A96000214600202AF085FC029796E803008DE836
:10A97000030095E80C00CAE70120DFE76FF08500CF
:10A98000DCE700BFAC6C06002DE9F34DDDE90AAB56
:10A99000DFF8488007460D4616461AB10E4B1B6875
:10A9A00048F82130022458F82510E0B22AF024FBA0
:10A9B00030B9013CF7D26FF0850002B0BDE8F08DF0
:10A9C000CDE900AB33462A4621463846FFF756FF0D
:10A9D0000028F2DDEDE700BFFC52002014520020F9
:10A9E0002DE9F04F2DED028B3D4C8FB000EB400375
:10A9F000CDE907129DED1A8B04EB830400F13A03B5
:10AA0000064602254FF0000906930CAFA0692AF014
:10AA100008F8002859D03046FFF724F88046069BF6
:10AA2000A0690A958DED0C8B0B9329F0FAFF002895
:10AA30004BD08368D3F810A0BAF1000F45D0079B24
:10AA40000493089BCDE9028397E803008DE8030097
:10AA500004F1180B0DF1280898E80C005846D0476F
:10AA6000002832DBB9F1000F18D1E8B2FFF7F6FE8B
:10AA700080F00100C0B2C3B20993069BA0690B939A
:10AA80008DED0C8B0A9529F0CCFF099B40B96FF036
:10AA900015000FB0BDEC028BBDE8F08F0120EAE796
:10AAA0008268D2F814A0BAF1000F02D16FF08500CD
:10AAB000EFE7029397E803008DE80300584698E813
:10AAC0000C00D047002807D0E3DB013D6B1CA4F14C
:10AAD0000C049BD10020DCE74FF00109F5E700BF33
:10AAE000F051002010B58AB06C4684E80F000023B6
:10AAF0000593064B049394E80F000AAC04E90F0099
:10AB000004A829F090FF0AB010BD00BFD47406005D
:10AB100084B030B589B00CAC84E80F0000230193F9
:10AB20000CAD084B00930FCD02AC0FC495E80300A9
:10AB300084E80300684629F076FF09B0BDE830409C
:10AB400004B07047DC7406000268034B9A420CBFE5
:10AB500008300020704700BFDC7406007FB56B46EC
:10AB600083E8030093E80300002206AB03E9030037
:10AB7000039202A8034A029229F055FF07B05DF83C
:10AB800004FB00BFE0740600074B1A78074B82B045
:10AB9000162102FB013301938DF8002002AB13E96B
:10ABA000030002B0FFF7DABFBA900020BB9000208C
:10ABB00002490348012202F023BE00BFBA900020E0
:10ABC00032A2060070B503788AB004460E4607AD7F
:10ABD000032B20D8DFE803F002191B1D114928467A
:10ABE000FBF702FC059563780493A3780393E3785D
:10ABF00002932379019363790093A3790A4A1E2172
:10AC0000304629F087FB0AB070BD0849E7E70849DC
:10AC1000E5E70849E3E7084A0A21284629F07AFBD4
:10AC2000E0E700BF45A206006EA206004CA20600A7
:10AC300053A206005DA2060067A206002DE9F041BE
:10AC40008AB00D46164628496A4604461F462BF030
:10AC500021FBF8B10098E8B10A2201A929F01EFCF5
:10AC6000019B1B7803BB162D1ED1C4B2042C1BD82C
:10AC7000DFF888806C432A4608EB04013846B04769
:10AC8000002813DD04F10F0002A94044FFF79AFFEA
:10AC900000200BE015496A4620462BF0FBFA78B1FC
:10ACA000009B6BB9012D04D06FF015000AB0BDE810
:10ACB000F0810F492A463846B04700EAE070F5E7D0
:10ACC0000C496A4620462BF0E5FA0028E0D00098AF
:10ACD0000028DDD0072DE7D13BF0C6FA0028D7D1F8
:10ACE00005492A46E7E700BF91A2060036A2060002
:10ACF000BA9000209AA20600B3900020BB900020DA
:10AD000010B592B004462DF0DFFE01A9FFF75AFFFF
:10AD100009A9204606F01CFE9DF82530012B13D111
:10AD20000A4828F03FFC20462DF0CEFE084B19784B
:10AD30000F22162313FB0123064919442AF0EDF9CB
:10AD400010B9054828F02EFC12B010BDA003002059
:10AD5000BA900020BB900020B003002008B5074B3C
:10AD6000074819780F22162313FB012318440549BD
:10AD70002AF0D3F9B0FA80F0400908BDBA9000205B
:10AD8000BB90002009A606002DE9F0410C468EB0CC
:10AD900005464FF0160806A9204615FB08F7FFF7F1
:10ADA00011FF0D4E216807F10F029319B150A288CF
:10ADB0009A80A2799A7109492A4601A829F0D6FAFF
:10ADC0004246F11901A802F01BFD054828F0EAFBF4
:10ADD0000EB0BDE8F08100BFBB900020AFA206001E
:10ADE000B003002010B5124B12491A7816240F2315
:10ADF00014FB0234104B1C448AB020462AF08DF913
:10AE000010B900200AB010BD2146002006F020FD38
:10AE100004460028F5D001A906F09AFD20462DF041
:10AE200035FD9DF82400831E58425841EAE700BFD3
:10AE3000BA90002009A60600BB900020F0B58DB0A6
:10AE4000FFF78CFF98B9FFF7CDFF80F001035B009F
:10AE5000DBB2214D2A7803EB0213112B09DC022B04
:10AE60002DD0102B23D0002420460DB0F0BD02239E
:10AE7000EFE7202B1BD0122BF5D105F09FFC002310
:10AE80002B7004460028EFD1144F0FCF02AE0FC62F
:10AE90003B681349336004220094234602A805F05E
:10AEA0005BFC04460028DFD102232B70DBE705F0B2
:10AEB00085FC00232B7004460028D4D0D4E7074E2D
:10AEC0000FCE07AC0FC433682360002304490093FE
:10AED000042207A8E3E700BF29910020406906008B
:10AEE000E474060030B593B005462DF0EDFD01A9E0
:10AEF0000446FFF767FE09A9284606F029FD9DF8DC
:10AF00002530012B05D1FFF729FF214618B904F0A0
:10AF10006FFD13B030BD034B1878FFF735FFFFF717
:10AF20008DFFF6E7BA90002030B593B00D4609A921
:10AF3000044606F00DFD9DF82530012B0BD120466F
:10AF40002DF0C2FD01A9FFF73DFE0E4B00221A7045
:10AF50001DB1FFF773FF13B030BDFFF76FFF204641
:10AF60002DF0B2FD084B19780F22162313FB012395
:10AF7000064919442AF0D1F80028ECD1044828F0F9
:10AF800011FBE8E729910020BA900020BB90002037
:10AF9000B003002010B5002004F046FE0446D8B9E6
:10AFA00002F082FD0D4802F0BBFC0446A0B90C493A
:10AFB0000C483AF06BFC0C4802F05CFC0B4802F0C9
:10AFC00059FC0B4806F01EFC0A4806F019FF0A4817
:10AFD00006F030FFFFF732FF204610BD8803002047
:10AFE000B1AB0200101F0020BFA20600C3A20600E2
:10AFF000680300204C0300203C030020014B18781C
:10B00000704700BFBA900020044B054819780F2202
:10B01000162313FB01231844704700BFBA90002089
:10B02000BB90002070B5164D90B0044601462846EE
:10B030002AF073F8E8B108A92846FFF7C3FD1149C3
:10B0400028462AF06AF80646B0B969462046FFF756
:10B05000B9FD23682B60A388AB80A3790A49AB7143
:10B06000324608A829F082F90722214608A802F0F2
:10B07000C7FB002010B070BD6FF00B00FAE700BFF7
:10B08000B390002009A60600C6A206001FB54D24F5
:10B090000294044C0194BDF8184000942FF03BF842
:10B0A00004B010BD01A3060007B5064B0093064986
:10B0B000064805234FF4407228F07AFA002003B0C6
:10B0C0005DF804FB0475060018930020401F002063
:10B0D00010B5FFF799FF0649072204463BF0C8F870
:10B0E00028B121460020BDE8104006F0B1BB10BDDC
:10B0F00009A60600F0B5164E164F89B000220023AF
:10B100006946304628F008F8054608B109B0F0BD98
:10B11000FFF7DEFF04460028F8D01822294602A8CF
:10B120003BF00CF908230DEB030120460397CDF803
:10B1300010D0ADF8143008F0C5FD013003D1022164
:10B1400020462DF047FC20462DF0A0FBD6E700BF9F
:10B1500044120020707506002DE9F041164FDFF80B
:10B160005C808AB001AE002200233146384627F0C9
:10B17000D3FF054610B10AB0BDE8F081FFF7A8FF84
:10B1800004460028F7D01822294604A83BF0D6F838
:10B190000C2304A92046CDE90586ADF81C3008F043
:10B1A00091FD013003D1022120462DF013FC2046F1
:10B1B0002DF06CFBD7E700BF14120020C07506000D
:10B1C00037B5054640F6CD42014600230C4827F02E
:10B1D0004DFF044678B110F10B0F09D10022002376
:10B1E0006946074827F098FF2846FFF7E9FF04461D
:10B1F000204603B030BD034903483AF030FBF7E77F
:10B2000044120020D0030020401F002030B5054626
:10B2100085B040F6CD42014600230D4827F026FFB9
:10B22000044678B110F10B0F09D10022002301A9C7
:10B23000074827F071FF2846FFF7E8FF044620463D
:10B2400005B030BD034904483AF009FBF7E700BFF9
:10B2500014120020C0030020401F00201FB500234F
:10B26000CDE90233044B8DF80C0001A8019329F0BD
:10B27000DAFB05B05DF804FB3C7606000268034B80
:10B280009A420CBF08300020704700BF3C76060091
:10B2900008B500F0F5FCBDE8084001493AF0DFBA16
:10B2A000A004002007B508483AF08CF848B14FF4E4
:10B2B000F0120023CDE9002304480022002328F0E7
:10B2C00051FF03B05DF804FBD46606007010002047
:10B2D00008B5FEF7D1FC10B96FF0850008BDFEF788
:10B2E00093FA38B10138C0B20128F5D803483AF0D2
:10B2F000A0FC01E0FFF7D6FF0020EFE77010002070
:10B3000037B50E4CA5682D21EB682046984790B9BB
:10B310002D212B696A462046984760B9084C009851
:10B320002378834207D0C0B2207002F041FA10B9EE
:10B330002078FFF793FF03B030BD00BFD46606004E
:10B340002B91002008B505483AF03CF818B1FFF7FA
:10B35000A9FF002008BD6FF01200FBE7D4660600CD
:10B36000014B1878704700BF2B91002030B50C4B73
:10B37000187887B090B90B4A52686AB90A4D012211
:10B380001A700FCD01AC0FC42B680849236001A8C7
:10B3900005F076FC00EAE07007B030BD0020FBE766
:10B3A0002C9100200053002054690600F1B90200DE
:10B3B00007B50023074900934FF4007205230648A0
:10B3C00028F0F6F8054806F01DFA03B05DF804EB26
:10B3D000FFF7CCBF1896002028200020C0040020D2
:10B3E00084B010B588B00AAC84E80F00114821463B
:10B3F00040F6CD42002327F039FE0446A8B110F1F3
:10B400000B0F0CD10022002303A90A4827F084FE69
:10B410000E9B00930AAB0FCBFFF7E2FF04462046DA
:10B4200008B0BDE8104004B07047034903483AF043
:10B4300016FAF4E7A4120020B0040020282000200F
:10B4400070B503788AB004460E4607AD032B20D8AA
:10B45000DFE803F002191B1D11492846FAF7C4FF63
:10B46000059563780493A3780393E3780293237993
:10B47000019363790093A3790A4A1E21304628F08C
:10B4800049FF0AB070BD0849E7E70849E5E7084900
:10B49000E3E7084A0A21284628F03CFFE0E700BF1E
:10B4A00045A206006EA206004CA2060053A20600AA
:10B4B0005DA2060067A2060030B50B4D89B002AC54
:10B4C000002200232146284627F026FE08B109B0B5
:10B4D00030BD08AB13E903008DE8030094E80F00CA
:10B4E000FEF7D4FBECE700BFB411002030B50B4DE4
:10B4F0008DB004AC002200232146284627F00CFE24
:10B5000008B10DB030BD0CAB13E90F008DE80F0092
:10B5100094E80F00FEF7E0FBECE700BFE411002029
:10B5200070B5114E114C8AB00022002305A9304697
:10B5300027F0F2FD08B10AB070BD9DF81430A422C6
:10B540005343E518E35C022BEED1B5F880100029D7
:10B55000EAD0CDE9010001230093686813230DF1BF
:10B5600015022FF03EF9DFE7A4120020005300205F
:10B5700010B508468CB011461AB9828100200CB073
:10B5800010BD012BFAD90C2B28BF0C231A4601A899
:10B590003AF0ACFE1C22002105A83AF0CFFE9DF83F
:10B5A0000540231E18BF012304933AF0FBFA4FF421
:10B5B0007A72A0FB020302FB0131C00B9DF804303C
:10B5C0008DF8283040EA414004EB8404C90BCDE9F2
:10B5D00008011C2362000DF1060105A83AF019FECE
:10B5E0000022002304A9044827F040FD034827F067
:10B5F000D9FF0120C3E700BFE4110020E0040020D0
:10B60000034B5B68834214BF6FF015000020704746
:10B610000053002008B5FFF7F3FF031EA3BF034844
:10B62000A42202FB0300002008BD00BF005300203D
:10B63000F0B5134687B0064631B9182218463AF0DD
:10B640007DFE002007B0F0BDFFF7E4FF04460028B0
:10B65000F7D0114B876801AA03F1100E94461868C1
:10B660005968154603C5083373452A46F7D11B7838
:10B670002B70614638462CF065F908B10120E1E7EE
:10B68000064BE3600323A060237604F108013046F3
:10B6900008F022FCD5E700BF68690600A1B60200E9
:10B6A0002DE9F041074690B00D46002900F08F804B
:10B6B000C968002900F08D80FFF7ACFF0446002820
:10B6C00034D0454B0E6801AA03F11008964618685D
:10B6D00059689446ACE80300083343456246F6D106
:10B6E0001B788CF80030714630462CF02BF900BBEB
:10B6F00004F168036363E38A238628462EF022FD63
:10B70000364B23620123A085238704F120013846AC
:10B7100008F0F4FDB4F8803033B1A38D23B1B4F850
:10B720005030003B18BF012383F0010010B0BDE88A
:10B73000F0812B4B06AA03F1100896461868596849
:10B740009446ACE80300083343456246F6D11B78C3
:10B750008CF80030714630462CF0F4F8C0B9A06087
:10B760002B8A023323820323237604F16803A36523
:10B77000E38AA4F8543028462EF0E4FC194B6364A5
:10B780000123A4F85000A4F85C3004F14401BEE7A2
:10B79000154B0BAA03F1100E94461868596817460A
:10B7A00003C7083373453A46F7D11B783B706146AF
:10B7B00030462CF0C7F80028ACD1A0602B8A0233A9
:10B7C000238228462EF0BEFCA4F88000A2E708469B
:10B7D000ACE70846AAE700BF79690600EDB70200AA
:10B7E0008A69060071B502009B6906002DE9F047E1
:10B7F00086B007461446FFF70DFF002851D024B944
:10B800008C81204606B0BDE8F087631E00F18102FE
:10B810000F3413F8011F12F8015F69401174197891
:10B820001170A342F5D1DFF88090DFF880A000F11D
:10B83000920400264FF0010800252378EB40DB0737
:10B8400027D514F8101C08FA05F31942384614BF1E
:10B8500001210021FFF7D4FEAA198DF80000019202
:10B860008DF808103AF09EF94FF47A72A0FB0203AB
:10B8700002FB0131C00B40EA4140C90BCDE9040194
:10B88000002200236946484627F0F0FB504627F087
:10B8900089FE0135082DD0D10836802E04F101042F
:10B8A000CAD10120AEE700BFB4110020F00400208F
:10B8B0002DE9F047044686B0002846D1244D2B7868
:10B8C000002B42D0686810B12CF0E0FF6C600024BF
:10B8D000204FDFF88490DFF884A02C70A04600266B
:10B8E0003B78F340DB071CD533198DF800800193BA
:10B8F0008DF808803AF056F94FF47A72A0FB0203F3
:10B9000002FB0131C00B40EA4140C90BCDE9040103
:10B91000002200236946484627F0A8FB504627F03E
:10B9200041FE0136082EDBD10834802C07F10107D7
:10B93000D5D10848202200213AF000FD0020A8853A
:10B94000A5F8800006B0BDE8F0876FF01500F9E7B4
:10B950000053002082530020B4110020F004002086
:10B9600070B5FFF75FFB041E0ADBA425064E654396
:10B97000735D2BB9FFF79CFF01237355204670BD03
:10B980006FF00B04FAE700BF0053002070B586B0DB
:10B990000646FFF7E5FF041E20DB124B00221A705B
:10B9A00005F0EEF9002819DB0F4B986DD96D6A464A
:10B9B00003C2603315460FCB85E80F000B4BA42262
:10B9C00002FB043329466A46304606F023F8002875
:10B9D00004DA2046FFF76CFFFFF7C8FC002006B032
:10B9E00070BD00BF2C910020546906000453002054
:10B9F00070B588B01546694604461E46FFF720FD1F
:10BA000035B90649224630462CF007F808B070BD1B
:10BA1000012DFBD12046FFF7B9FFF7E721BA02005D
:10BA2000F0B50378063B012BA5B005460E4602D9BA
:10BA3000012025B0F0BD447814F00F04F8D16B78E4
:10BA40009C42F5DA69681022214401A82BF0A8FF76
:10BA500070B31A4B06AA03F1100796461868596886
:10BA60009446ACE803000833BB426246F6D11B782B
:10BA70008CF80030714601A82BF064FFD0B125226C
:10BA800010A901A803F070FA0BAA0C4B964618688F
:10BA900059689446ACE803000833BB426246F6D1CD
:10BAA0001B788CF8003025221AA9704603F05CFA46
:10BAB0001034C4E73046FFF769FFBAE7686906004B
:10BAC00008B5FFF79DFD002805DBA4235843024B72
:10BAD00002221A54002008BD0053002030B59BB04C
